{
	"contracts/2_Storage.sol": {
		"Storage": {
			"abi": [
				{
					"inputs": [],
					"stateMutability": "nonpayable",
					"type": "constructor"
				},
				{
					"inputs": [
						{
							"internalType": "string",
							"name": "_name",
							"type": "string"
						}
					],
					"name": "change_name",
					"outputs": [],
					"stateMutability": "nonpayable",
					"type": "function"
				},
				{
					"inputs": [],
					"name": "name",
					"outputs": [
						{
							"internalType": "string",
							"name": "",
							"type": "string"
						}
					],
					"stateMutability": "view",
					"type": "function"
				},
				{
					"inputs": [],
					"name": "owner",
					"outputs": [
						{
							"internalType": "address",
							"name": "",
							"type": "address"
						}
					],
					"stateMutability": "view",
					"type": "function"
				}
			],
			"devdoc": {
				"kind": "dev",
				"methods": {},
				"version": 1
			},
			"evm": {
				"assembly": "    /* \"contracts/2_Storage.sol\":71:601  contract Storage {... */\n  mstore(0x40, 0x80)\n    /* \"contracts/2_Storage.sol\":187:218  string public name = \"John Doe\" */\n  mload(0x40)\n  dup1\n  0x40\n  add\n  0x40\n  mstore\n  dup1\n  0x08\n  dup2\n  mstore\n  0x20\n  add\n  0x4a6f686e20446f65000000000000000000000000000000000000000000000000\n  dup2\n  mstore\n  pop\n  0x01\n  swap1\n  dup2\n  tag_1\n  swap2\n  swap1\n  tag_2\n  jump\t// in\ntag_1:\n  pop\n    /* \"contracts/2_Storage.sol\":225:360  constructor() {... */\n  callvalue\n  dup1\n  iszero\n  tag_3\n  jumpi\n  revert(0x00, 0x00)\ntag_3:\n  pop\n    /* \"contracts/2_Storage.sol\":343:353  msg.sender */\n  caller\n    /* \"contracts/2_Storage.sol\":335:340  owner */\n  0x00\n  0x00\n    /* \"contracts/2_Storage.sol\":335:353  owner = msg.sender */\n  0x0100\n  exp\n  dup2\n  sload\n  dup2\n  0xffffffffffffffffffffffffffffffffffffffff\n  mul\n  not\n  and\n  swap1\n  dup4\n  0xffffffffffffffffffffffffffffffffffffffff\n  and\n  mul\n  or\n  swap1\n  sstore\n  pop\n    /* \"contracts/2_Storage.sol\":71:601  contract Storage {... */\n  jump(tag_6)\n    /* \"#utility.yul\":7:106   */\ntag_7:\n    /* \"#utility.yul\":59:65   */\n  0x00\n    /* \"#utility.yul\":93:98   */\n  dup2\n    /* \"#utility.yul\":87:99   */\n  mload\n    /* \"#utility.yul\":77:99   */\n  swap1\n  pop\n    /* \"#utility.yul\":7:106   */\n  swap2\n  swap1\n  pop\n  jump\t// out\n    /* \"#utility.yul\":112:292   */\ntag_8:\n    /* \"#utility.yul\":160:237   */\n  0x4e487b7100000000000000000000000000000000000000000000000000000000\n    /* \"#utility.yul\":157:158   */\n  0x00\n    /* \"#utility.yul\":150:238   */\n  mstore\n    /* \"#utility.yul\":257:261   */\n  0x41\n    /* \"#utility.yul\":254:255   */\n  0x04\n    /* \"#utility.yul\":247:262   */\n  mstore\n    /* \"#utility.yul\":281:285   */\n  0x24\n    /* \"#utility.yul\":278:279   */\n  0x00\n    /* \"#utility.yul\":271:286   */\n  revert\n    /* \"#utility.yul\":298:478   */\ntag_9:\n    /* \"#utility.yul\":346:423   */\n  0x4e487b7100000000000000000000000000000000000000000000000000000000\n    /* \"#utility.yul\":343:344   */\n  0x00\n    /* \"#utility.yul\":336:424   */\n  mstore\n    /* \"#utility.yul\":443:447   */\n  0x22\n    /* \"#utility.yul\":440:441   */\n  0x04\n    /* \"#utility.yul\":433:448   */\n  mstore\n    /* \"#utility.yul\":467:471   */\n  0x24\n    /* \"#utility.yul\":464:465   */\n  0x00\n    /* \"#utility.yul\":457:472   */\n  revert\n    /* \"#utility.yul\":484:804   */\ntag_10:\n    /* \"#utility.yul\":528:534   */\n  0x00\n    /* \"#utility.yul\":565:566   */\n  0x02\n    /* \"#utility.yul\":559:563   */\n  dup3\n    /* \"#utility.yul\":555:567   */\n  div\n    /* \"#utility.yul\":545:567   */\n  swap1\n  pop\n    /* \"#utility.yul\":612:613   */\n  0x01\n    /* \"#utility.yul\":606:610   */\n  dup3\n    /* \"#utility.yul\":602:614   */\n  and\n    /* \"#utility.yul\":633:651   */\n  dup1\n    /* \"#utility.yul\":623:704   */\n  tag_32\n  jumpi\n    /* \"#utility.yul\":689:693   */\n  0x7f\n    /* \"#utility.yul\":681:687   */\n  dup3\n    /* \"#utility.yul\":677:694   */\n  and\n    /* \"#utility.yul\":667:694   */\n  swap2\n  pop\n    /* \"#utility.yul\":623:704   */\ntag_32:\n    /* \"#utility.yul\":751:753   */\n  0x20\n    /* \"#utility.yul\":743:749   */\n  dup3\n    /* \"#utility.yul\":740:754   */\n  lt\n    /* \"#utility.yul\":720:738   */\n  dup2\n    /* \"#utility.yul\":717:755   */\n  sub\n    /* \"#utility.yul\":714:798   */\n  tag_33\n  jumpi\n    /* \"#utility.yul\":770:788   */\n  tag_34\n  tag_9\n  jump\t// in\ntag_34:\n    /* \"#utility.yul\":714:798   */\ntag_33:\n    /* \"#utility.yul\":535:804   */\n  pop\n    /* \"#utility.yul\":484:804   */\n  swap2\n  swap1\n  pop\n  jump\t// out\n    /* \"#utility.yul\":810:951   */\ntag_11:\n    /* \"#utility.yul\":859:863   */\n  0x00\n    /* \"#utility.yul\":882:885   */\n  dup2\n    /* \"#utility.yul\":874:885   */\n  swap1\n  pop\n    /* \"#utility.yul\":905:908   */\n  dup2\n    /* \"#utility.yul\":902:903   */\n  0x00\n    /* \"#utility.yul\":895:909   */\n  mstore\n    /* \"#utility.yul\":939:943   */\n  0x20\n    /* \"#utility.yul\":936:937   */\n  0x00\n    /* \"#utility.yul\":926:944   */\n  keccak256\n    /* \"#utility.yul\":918:944   */\n  swap1\n  pop\n    /* \"#utility.yul\":810:951   */\n  swap2\n  swap1\n  pop\n  jump\t// out\n    /* \"#utility.yul\":957:1050   */\ntag_12:\n    /* \"#utility.yul\":994:1000   */\n  0x00\n    /* \"#utility.yul\":1041:1043   */\n  0x20\n    /* \"#utility.yul\":1036:1038   */\n  0x1f\n    /* \"#utility.yul\":1029:1034   */\n  dup4\n    /* \"#utility.yul\":1025:1039   */\n  add\n    /* \"#utility.yul\":1021:1044   */\n  div\n    /* \"#utility.yul\":1011:1044   */\n  swap1\n  pop\n    /* \"#utility.yul\":957:1050   */\n  swap2\n  swap1\n  pop\n  jump\t// out\n    /* \"#utility.yul\":1056:1163   */\ntag_13:\n    /* \"#utility.yul\":1100:1108   */\n  0x00\n    /* \"#utility.yul\":1150:1155   */\n  dup3\n    /* \"#utility.yul\":1144:1148   */\n  dup3\n    /* \"#utility.yul\":1140:1156   */\n  shl\n    /* \"#utility.yul\":1119:1156   */\n  swap1\n  pop\n    /* \"#utility.yul\":1056:1163   */\n  swap3\n  swap2\n  pop\n  pop\n  jump\t// out\n    /* \"#utility.yul\":1169:1562   */\ntag_14:\n    /* \"#utility.yul\":1238:1244   */\n  0x00\n    /* \"#utility.yul\":1288:1289   */\n  0x08\n    /* \"#utility.yul\":1276:1286   */\n  dup4\n    /* \"#utility.yul\":1272:1290   */\n  mul\n    /* \"#utility.yul\":1311:1408   */\n  tag_39\n    /* \"#utility.yul\":1341:1407   */\n  0xffffffffffffffffffffffffffffffffffffffffffffffffffffffffffffffff\n    /* \"#utility.yul\":1330:1339   */\n  dup3\n    /* \"#utility.yul\":1311:1408   */\n  tag_13\n  jump\t// in\ntag_39:\n    /* \"#utility.yul\":1429:1468   */\n  tag_40\n    /* \"#utility.yul\":1459:1467   */\n  dup7\n    /* \"#utility.yul\":1448:1457   */\n  dup4\n    /* \"#utility.yul\":1429:1468   */\n  tag_13\n  jump\t// in\ntag_40:\n    /* \"#utility.yul\":1417:1468   */\n  swap6\n  pop\n    /* \"#utility.yul\":1501:1505   */\n  dup1\n    /* \"#utility.yul\":1497:1506   */\n  not\n    /* \"#utility.yul\":1490:1495   */\n  dup5\n    /* \"#utility.yul\":1486:1507   */\n  and\n    /* \"#utility.yul\":1477:1507   */\n  swap4\n  pop\n    /* \"#utility.yul\":1550:1554   */\n  dup1\n    /* \"#utility.yul\":1540:1548   */\n  dup7\n    /* \"#utility.yul\":1536:1555   */\n  and\n    /* \"#utility.yul\":1529:1534   */\n  dup5\n    /* \"#utility.yul\":1526:1556   */\n  or\n    /* \"#utility.yul\":1516:1556   */\n  swap3\n  pop\n    /* \"#utility.yul\":1245:1562   */\n  pop\n  pop\n    /* \"#utility.yul\":1169:1562   */\n  swap4\n  swap3\n  pop\n  pop\n  pop\n  jump\t// out\n    /* \"#utility.yul\":1568:1645   */\ntag_15:\n    /* \"#utility.yul\":1605:1612   */\n  0x00\n    /* \"#utility.yul\":1634:1639   */\n  dup2\n    /* \"#utility.yul\":1623:1639   */\n  swap1\n  pop\n    /* \"#utility.yul\":1568:1645   */\n  swap2\n  swap1\n  pop\n  jump\t// out\n    /* \"#utility.yul\":1651:1711   */\ntag_16:\n    /* \"#utility.yul\":1679:1682   */\n  0x00\n    /* \"#utility.yul\":1700:1705   */\n  dup2\n    /* \"#utility.yul\":1693:1705   */\n  swap1\n  pop\n    /* \"#utility.yul\":1651:1711   */\n  swap2\n  swap1\n  pop\n  jump\t// out\n    /* \"#utility.yul\":1717:1859   */\ntag_17:\n    /* \"#utility.yul\":1767:1776   */\n  0x00\n    /* \"#utility.yul\":1800:1853   */\n  tag_44\n    /* \"#utility.yul\":1818:1852   */\n  tag_45\n    /* \"#utility.yul\":1827:1851   */\n  tag_46\n    /* \"#utility.yul\":1845:1850   */\n  dup5\n    /* \"#utility.yul\":1827:1851   */\n  tag_15\n  jump\t// in\ntag_46:\n    /* \"#utility.yul\":1818:1852   */\n  tag_16\n  jump\t// in\ntag_45:\n    /* \"#utility.yul\":1800:1853   */\n  tag_15\n  jump\t// in\ntag_44:\n    /* \"#utility.yul\":1787:1853   */\n  swap1\n  pop\n    /* \"#utility.yul\":1717:1859   */\n  swap2\n  swap1\n  pop\n  jump\t// out\n    /* \"#utility.yul\":1865:1940   */\ntag_18:\n    /* \"#utility.yul\":1908:1911   */\n  0x00\n    /* \"#utility.yul\":1929:1934   */\n  dup2\n    /* \"#utility.yul\":1922:1934   */\n  swap1\n  pop\n    /* \"#utility.yul\":1865:1940   */\n  swap2\n  swap1\n  pop\n  jump\t// out\n    /* \"#utility.yul\":1946:2215   */\ntag_19:\n    /* \"#utility.yul\":2056:2095   */\n  tag_49\n    /* \"#utility.yul\":2087:2094   */\n  dup4\n    /* \"#utility.yul\":2056:2095   */\n  tag_17\n  jump\t// in\ntag_49:\n    /* \"#utility.yul\":2117:2208   */\n  tag_50\n    /* \"#utility.yul\":2166:2207   */\n  tag_51\n    /* \"#utility.yul\":2190:2206   */\n  dup3\n    /* \"#utility.yul\":2166:2207   */\n  tag_18\n  jump\t// in\ntag_51:\n    /* \"#utility.yul\":2158:2164   */\n  dup5\n    /* \"#utility.yul\":2151:2155   */\n  dup5\n    /* \"#utility.yul\":2145:2156   */\n  sload\n    /* \"#utility.yul\":2117:2208   */\n  tag_14\n  jump\t// in\ntag_50:\n    /* \"#utility.yul\":2111:2115   */\n  dup3\n    /* \"#utility.yul\":2104:2209   */\n  sstore\n    /* \"#utility.yul\":2022:2215   */\n  pop\n    /* \"#utility.yul\":1946:2215   */\n  pop\n  pop\n  pop\n  jump\t// out\n    /* \"#utility.yul\":2221:2294   */\ntag_20:\n    /* \"#utility.yul\":2266:2269   */\n  0x00\n    /* \"#utility.yul\":2287:2288   */\n  0x00\n    /* \"#utility.yul\":2280:2288   */\n  swap1\n  pop\n    /* \"#utility.yul\":2221:2294   */\n  swap1\n  jump\t// out\n    /* \"#utility.yul\":2300:2489   */\ntag_21:\n    /* \"#utility.yul\":2377:2409   */\n  tag_54\n  tag_20\n  jump\t// in\ntag_54:\n    /* \"#utility.yul\":2418:2483   */\n  tag_55\n    /* \"#utility.yul\":2476:2482   */\n  dup2\n    /* \"#utility.yul\":2468:2474   */\n  dup5\n    /* \"#utility.yul\":2462:2466   */\n  dup5\n    /* \"#utility.yul\":2418:2483   */\n  tag_19\n  jump\t// in\ntag_55:\n    /* \"#utility.yul\":2353:2489   */\n  pop\n    /* \"#utility.yul\":2300:2489   */\n  pop\n  pop\n  jump\t// out\n    /* \"#utility.yul\":2495:2681   */\ntag_22:\n    /* \"#utility.yul\":2555:2675   */\ntag_57:\n    /* \"#utility.yul\":2572:2575   */\n  dup2\n    /* \"#utility.yul\":2565:2570   */\n  dup2\n    /* \"#utility.yul\":2562:2576   */\n  lt\n    /* \"#utility.yul\":2555:2675   */\n  iszero\n  tag_59\n  jumpi\n    /* \"#utility.yul\":2626:2665   */\n  tag_60\n    /* \"#utility.yul\":2663:2664   */\n  0x00\n    /* \"#utility.yul\":2656:2661   */\n  dup3\n    /* \"#utility.yul\":2626:2665   */\n  tag_21\n  jump\t// in\ntag_60:\n    /* \"#utility.yul\":2599:2600   */\n  0x01\n    /* \"#utility.yul\":2592:2597   */\n  dup2\n    /* \"#utility.yul\":2588:2601   */\n  add\n    /* \"#utility.yul\":2579:2601   */\n  swap1\n  pop\n    /* \"#utility.yul\":2555:2675   */\n  jump(tag_57)\ntag_59:\n    /* \"#utility.yul\":2495:2681   */\n  pop\n  pop\n  jump\t// out\n    /* \"#utility.yul\":2687:3230   */\ntag_23:\n    /* \"#utility.yul\":2788:2790   */\n  0x1f\n    /* \"#utility.yul\":2783:2786   */\n  dup3\n    /* \"#utility.yul\":2780:2791   */\n  gt\n    /* \"#utility.yul\":2777:3223   */\n  iszero\n  tag_62\n  jumpi\n    /* \"#utility.yul\":2822:2860   */\n  tag_63\n    /* \"#utility.yul\":2854:2859   */\n  dup2\n    /* \"#utility.yul\":2822:2860   */\n  tag_11\n  jump\t// in\ntag_63:\n    /* \"#utility.yul\":2906:2935   */\n  tag_64\n    /* \"#utility.yul\":2924:2934   */\n  dup5\n    /* \"#utility.yul\":2906:2935   */\n  tag_12\n  jump\t// in\ntag_64:\n    /* \"#utility.yul\":2896:2904   */\n  dup2\n    /* \"#utility.yul\":2892:2936   */\n  add\n    /* \"#utility.yul\":3089:3091   */\n  0x20\n    /* \"#utility.yul\":3077:3087   */\n  dup6\n    /* \"#utility.yul\":3074:3092   */\n  lt\n    /* \"#utility.yul\":3071:3120   */\n  iszero\n  tag_65\n  jumpi\n    /* \"#utility.yul\":3110:3118   */\n  dup2\n    /* \"#utility.yul\":3095:3118   */\n  swap1\n  pop\n    /* \"#utility.yul\":3071:3120   */\ntag_65:\n    /* \"#utility.yul\":3133:3213   */\n  tag_66\n    /* \"#utility.yul\":3189:3211   */\n  tag_67\n    /* \"#utility.yul\":3207:3210   */\n  dup6\n    /* \"#utility.yul\":3189:3211   */\n  tag_12\n  jump\t// in\ntag_67:\n    /* \"#utility.yul\":3179:3187   */\n  dup4\n    /* \"#utility.yul\":3175:3212   */\n  add\n    /* \"#utility.yul\":3162:3173   */\n  dup3\n    /* \"#utility.yul\":3133:3213   */\n  tag_22\n  jump\t// in\ntag_66:\n    /* \"#utility.yul\":2792:3223   */\n  pop\n  pop\n    /* \"#utility.yul\":2777:3223   */\ntag_62:\n    /* \"#utility.yul\":2687:3230   */\n  pop\n  pop\n  pop\n  jump\t// out\n    /* \"#utility.yul\":3236:3353   */\ntag_24:\n    /* \"#utility.yul\":3290:3298   */\n  0x00\n    /* \"#utility.yul\":3340:3345   */\n  dup3\n    /* \"#utility.yul\":3334:3338   */\n  dup3\n    /* \"#utility.yul\":3330:3346   */\n  shr\n    /* \"#utility.yul\":3309:3346   */\n  swap1\n  pop\n    /* \"#utility.yul\":3236:3353   */\n  swap3\n  swap2\n  pop\n  pop\n  jump\t// out\n    /* \"#utility.yul\":3359:3528   */\ntag_25:\n    /* \"#utility.yul\":3403:3409   */\n  0x00\n    /* \"#utility.yul\":3436:3487   */\n  tag_70\n    /* \"#utility.yul\":3484:3485   */\n  0x00\n    /* \"#utility.yul\":3480:3486   */\n  not\n    /* \"#utility.yul\":3472:3477   */\n  dup5\n    /* \"#utility.yul\":3469:3470   */\n  0x08\n    /* \"#utility.yul\":3465:3478   */\n  mul\n    /* \"#utility.yul\":3436:3487   */\n  tag_24\n  jump\t// in\ntag_70:\n    /* \"#utility.yul\":3432:3488   */\n  not\n    /* \"#utility.yul\":3517:3521   */\n  dup1\n    /* \"#utility.yul\":3511:3515   */\n  dup4\n    /* \"#utility.yul\":3507:3522   */\n  and\n    /* \"#utility.yul\":3497:3522   */\n  swap2\n  pop\n    /* \"#utility.yul\":3410:3528   */\n  pop\n    /* \"#utility.yul\":3359:3528   */\n  swap3\n  swap2\n  pop\n  pop\n  jump\t// out\n    /* \"#utility.yul\":3533:3828   */\ntag_26:\n    /* \"#utility.yul\":3609:3613   */\n  0x00\n    /* \"#utility.yul\":3755:3784   */\n  tag_72\n    /* \"#utility.yul\":3780:3783   */\n  dup4\n    /* \"#utility.yul\":3774:3778   */\n  dup4\n    /* \"#utility.yul\":3755:3784   */\n  tag_25\n  jump\t// in\ntag_72:\n    /* \"#utility.yul\":3747:3784   */\n  swap2\n  pop\n    /* \"#utility.yul\":3817:3820   */\n  dup3\n    /* \"#utility.yul\":3814:3815   */\n  0x02\n    /* \"#utility.yul\":3810:3821   */\n  mul\n    /* \"#utility.yul\":3804:3808   */\n  dup3\n    /* \"#utility.yul\":3801:3822   */\n  or\n    /* \"#utility.yul\":3793:3822   */\n  swap1\n  pop\n    /* \"#utility.yul\":3533:3828   */\n  swap3\n  swap2\n  pop\n  pop\n  jump\t// out\n    /* \"#utility.yul\":3833:5228   */\ntag_2:\n    /* \"#utility.yul\":3950:3987   */\n  tag_74\n    /* \"#utility.yul\":3983:3986   */\n  dup3\n    /* \"#utility.yul\":3950:3987   */\n  tag_7\n  jump\t// in\ntag_74:\n    /* \"#utility.yul\":4052:4070   */\n  0xffffffffffffffff\n    /* \"#utility.yul\":4044:4050   */\n  dup2\n    /* \"#utility.yul\":4041:4071   */\n  gt\n    /* \"#utility.yul\":4038:4094   */\n  iszero\n  tag_75\n  jumpi\n    /* \"#utility.yul\":4074:4092   */\n  tag_76\n  tag_8\n  jump\t// in\ntag_76:\n    /* \"#utility.yul\":4038:4094   */\ntag_75:\n    /* \"#utility.yul\":4118:4156   */\n  tag_77\n    /* \"#utility.yul\":4150:4154   */\n  dup3\n    /* \"#utility.yul\":4144:4155   */\n  sload\n    /* \"#utility.yul\":4118:4156   */\n  tag_10\n  jump\t// in\ntag_77:\n    /* \"#utility.yul\":4203:4270   */\n  tag_78\n    /* \"#utility.yul\":4263:4269   */\n  dup3\n    /* \"#utility.yul\":4255:4261   */\n  dup3\n    /* \"#utility.yul\":4249:4253   */\n  dup6\n    /* \"#utility.yul\":4203:4270   */\n  tag_23\n  jump\t// in\ntag_78:\n    /* \"#utility.yul\":4297:4298   */\n  0x00\n    /* \"#utility.yul\":4321:4325   */\n  0x20\n    /* \"#utility.yul\":4308:4325   */\n  swap1\n  pop\n    /* \"#utility.yul\":4353:4355   */\n  0x1f\n    /* \"#utility.yul\":4345:4351   */\n  dup4\n    /* \"#utility.yul\":4342:4356   */\n  gt\n    /* \"#utility.yul\":4370:4371   */\n  0x01\n    /* \"#utility.yul\":4365:4983   */\n  dup2\n  eq\n  tag_80\n  jumpi\n    /* \"#utility.yul\":5027:5028   */\n  0x00\n    /* \"#utility.yul\":5044:5050   */\n  dup5\n    /* \"#utility.yul\":5041:5118   */\n  iszero\n  tag_81\n  jumpi\n    /* \"#utility.yul\":5093:5102   */\n  dup3\n    /* \"#utility.yul\":5088:5091   */\n  dup8\n    /* \"#utility.yul\":5084:5103   */\n  add\n    /* \"#utility.yul\":5078:5104   */\n  mload\n    /* \"#utility.yul\":5069:5104   */\n  swap1\n  pop\n    /* \"#utility.yul\":5041:5118   */\ntag_81:\n    /* \"#utility.yul\":5144:5211   */\n  tag_82\n    /* \"#utility.yul\":5204:5210   */\n  dup6\n    /* \"#utility.yul\":5197:5202   */\n  dup3\n    /* \"#utility.yul\":5144:5211   */\n  tag_26\n  jump\t// in\ntag_82:\n    /* \"#utility.yul\":5138:5142   */\n  dup7\n    /* \"#utility.yul\":5131:5212   */\n  sstore\n    /* \"#utility.yul\":5000:5222   */\n  pop\n    /* \"#utility.yul\":4335:5222   */\n  jump(tag_79)\n    /* \"#utility.yul\":4365:4983   */\ntag_80:\n    /* \"#utility.yul\":4417:4421   */\n  0x1f\n    /* \"#utility.yul\":4413:4422   */\n  not\n    /* \"#utility.yul\":4405:4411   */\n  dup5\n    /* \"#utility.yul\":4401:4423   */\n  and\n    /* \"#utility.yul\":4451:4488   */\n  tag_83\n    /* \"#utility.yul\":4483:4487   */\n  dup7\n    /* \"#utility.yul\":4451:4488   */\n  tag_11\n  jump\t// in\ntag_83:\n    /* \"#utility.yul\":4510:4511   */\n  0x00\n    /* \"#utility.yul\":4524:4732   */\ntag_84:\n    /* \"#utility.yul\":4538:4545   */\n  dup3\n    /* \"#utility.yul\":4535:4536   */\n  dup2\n    /* \"#utility.yul\":4532:4546   */\n  lt\n    /* \"#utility.yul\":4524:4732   */\n  iszero\n  tag_86\n  jumpi\n    /* \"#utility.yul\":4617:4626   */\n  dup5\n    /* \"#utility.yul\":4612:4615   */\n  dup10\n    /* \"#utility.yul\":4608:4627   */\n  add\n    /* \"#utility.yul\":4602:4628   */\n  mload\n    /* \"#utility.yul\":4594:4600   */\n  dup3\n    /* \"#utility.yul\":4587:4629   */\n  sstore\n    /* \"#utility.yul\":4668:4669   */\n  0x01\n    /* \"#utility.yul\":4660:4666   */\n  dup3\n    /* \"#utility.yul\":4656:4670   */\n  add\n    /* \"#utility.yul\":4646:4670   */\n  swap2\n  pop\n    /* \"#utility.yul\":4715:4717   */\n  0x20\n    /* \"#utility.yul\":4704:4713   */\n  dup6\n    /* \"#utility.yul\":4700:4718   */\n  add\n    /* \"#utility.yul\":4687:4718   */\n  swap5\n  pop\n    /* \"#utility.yul\":4561:4565   */\n  0x20\n    /* \"#utility.yul\":4558:4559   */\n  dup2\n    /* \"#utility.yul\":4554:4566   */\n  add\n    /* \"#utility.yul\":4549:4566   */\n  swap1\n  pop\n    /* \"#utility.yul\":4524:4732   */\n  jump(tag_84)\ntag_86:\n    /* \"#utility.yul\":4760:4766   */\n  dup7\n    /* \"#utility.yul\":4751:4758   */\n  dup4\n    /* \"#utility.yul\":4748:4767   */\n  lt\n    /* \"#utility.yul\":4745:4924   */\n  iszero\n  tag_87\n  jumpi\n    /* \"#utility.yul\":4818:4827   */\n  dup5\n    /* \"#utility.yul\":4813:4816   */\n  dup10\n    /* \"#utility.yul\":4809:4828   */\n  add\n    /* \"#utility.yul\":4803:4829   */\n  mload\n    /* \"#utility.yul\":4861:4909   */\n  tag_88\n    /* \"#utility.yul\":4903:4907   */\n  0x1f\n    /* \"#utility.yul\":4895:4901   */\n  dup10\n    /* \"#utility.yul\":4891:4908   */\n  and\n    /* \"#utility.yul\":4880:4889   */\n  dup3\n    /* \"#utility.yul\":4861:4909   */\n  tag_25\n  jump\t// in\ntag_88:\n    /* \"#utility.yul\":4853:4859   */\n  dup4\n    /* \"#utility.yul\":4846:4910   */\n  sstore\n    /* \"#utility.yul\":4768:4924   */\n  pop\n    /* \"#utility.yul\":4745:4924   */\ntag_87:\n    /* \"#utility.yul\":4970:4971   */\n  0x01\n    /* \"#utility.yul\":4966:4967   */\n  0x02\n    /* \"#utility.yul\":4958:4964   */\n  dup9\n    /* \"#utility.yul\":4954:4968   */\n  mul\n    /* \"#utility.yul\":4950:4972   */\n  add\n    /* \"#utility.yul\":4944:4948   */\n  dup9\n    /* \"#utility.yul\":4937:4973   */\n  sstore\n    /* \"#utility.yul\":4372:4983   */\n  pop\n  pop\n  pop\n    /* \"#utility.yul\":4335:5222   */\ntag_79:\n  pop\n    /* \"#utility.yul\":3925:5228   */\n  pop\n  pop\n  pop\n    /* \"#utility.yul\":3833:5228   */\n  pop\n  pop\n  jump\t// out\n    /* \"contracts/2_Storage.sol\":71:601  contract Storage {... */\ntag_6:\n  dataSize(sub_0)\n  dup1\n  dataOffset(sub_0)\n  0x00\n  codecopy\n  0x00\n  return\nstop\n\nsub_0: assembly {\n        /* \"contracts/2_Storage.sol\":71:601  contract Storage {... */\n      mstore(0x40, 0x80)\n      callvalue\n      dup1\n      iszero\n      tag_1\n      jumpi\n      revert(0x00, 0x00)\n    tag_1:\n      pop\n      jumpi(tag_2, lt(calldatasize, 0x04))\n      shr(0xe0, calldataload(0x00))\n      dup1\n      0x06fdde03\n      eq\n      tag_3\n      jumpi\n      dup1\n      0x8da5cb5b\n      eq\n      tag_4\n      jumpi\n      dup1\n      0xe349cb12\n      eq\n      tag_5\n      jumpi\n    tag_2:\n      revert(0x00, 0x00)\n        /* \"contracts/2_Storage.sol\":187:218  string public name = \"John Doe\" */\n    tag_3:\n      tag_6\n      tag_7\n      jump\t// in\n    tag_6:\n      mload(0x40)\n      tag_8\n      swap2\n      swap1\n      tag_9\n      jump\t// in\n    tag_8:\n      mload(0x40)\n      dup1\n      swap2\n      sub\n      swap1\n      return\n        /* \"contracts/2_Storage.sol\":156:176  address public owner */\n    tag_4:\n      tag_10\n      tag_11\n      jump\t// in\n    tag_10:\n      mload(0x40)\n      tag_12\n      swap2\n      swap1\n      tag_13\n      jump\t// in\n    tag_12:\n      mload(0x40)\n      dup1\n      swap2\n      sub\n      swap1\n      return\n        /* \"contracts/2_Storage.sol\":366:597  function change_name(string memory _name) public {... */\n    tag_5:\n      tag_14\n      0x04\n      dup1\n      calldatasize\n      sub\n      dup2\n      add\n      swap1\n      tag_15\n      swap2\n      swap1\n      tag_16\n      jump\t// in\n    tag_15:\n      tag_17\n      jump\t// in\n    tag_14:\n      stop\n        /* \"contracts/2_Storage.sol\":187:218  string public name = \"John Doe\" */\n    tag_7:\n      0x01\n      dup1\n      sload\n      tag_18\n      swap1\n      tag_19\n      jump\t// in\n    tag_18:\n      dup1\n      0x1f\n      add\n      0x20\n      dup1\n      swap2\n      div\n      mul\n      0x20\n      add\n      mload(0x40)\n      swap1\n      dup2\n      add\n      0x40\n      mstore\n      dup1\n      swap3\n      swap2\n      swap1\n      dup2\n      dup2\n      mstore\n      0x20\n      add\n      dup3\n      dup1\n      sload\n      tag_20\n      swap1\n      tag_19\n      jump\t// in\n    tag_20:\n      dup1\n      iszero\n      tag_21\n      jumpi\n      dup1\n      0x1f\n      lt\n      tag_22\n      jumpi\n      0x0100\n      dup1\n      dup4\n      sload\n      div\n      mul\n      dup4\n      mstore\n      swap2\n      0x20\n      add\n      swap2\n      jump(tag_21)\n    tag_22:\n      dup3\n      add\n      swap2\n      swap1\n      0x00\n      mstore\n      keccak256(0x00, 0x20)\n      swap1\n    tag_23:\n      dup2\n      sload\n      dup2\n      mstore\n      swap1\n      0x01\n      add\n      swap1\n      0x20\n      add\n      dup1\n      dup4\n      gt\n      tag_23\n      jumpi\n      dup3\n      swap1\n      sub\n      0x1f\n      and\n      dup3\n      add\n      swap2\n    tag_21:\n      pop\n      pop\n      pop\n      pop\n      pop\n      dup2\n      jump\t// out\n        /* \"contracts/2_Storage.sol\":156:176  address public owner */\n    tag_11:\n      0x00\n      0x00\n      swap1\n      sload\n      swap1\n      0x0100\n      exp\n      swap1\n      div\n      0xffffffffffffffffffffffffffffffffffffffff\n      and\n      dup2\n      jump\t// out\n        /* \"contracts/2_Storage.sol\":366:597  function change_name(string memory _name) public {... */\n    tag_17:\n        /* \"contracts/2_Storage.sol\":532:537  owner */\n      0x00\n      0x00\n      swap1\n      sload\n      swap1\n      0x0100\n      exp\n      swap1\n      div\n      0xffffffffffffffffffffffffffffffffffffffff\n      and\n        /* \"contracts/2_Storage.sol\":520:537  msg.sender==owner */\n      0xffffffffffffffffffffffffffffffffffffffff\n      and\n        /* \"contracts/2_Storage.sol\":520:530  msg.sender */\n      caller\n        /* \"contracts/2_Storage.sol\":520:537  msg.sender==owner */\n      0xffffffffffffffffffffffffffffffffffffffff\n      and\n      eq\n        /* \"contracts/2_Storage.sol\":512:563  require(msg.sender==owner,\"You are not the owner!\") */\n      tag_25\n      jumpi\n      mload(0x40)\n      0x08c379a000000000000000000000000000000000000000000000000000000000\n      dup2\n      mstore\n      0x04\n      add\n      tag_26\n      swap1\n      tag_27\n      jump\t// in\n    tag_26:\n      mload(0x40)\n      dup1\n      swap2\n      sub\n      swap1\n      revert\n    tag_25:\n        /* \"contracts/2_Storage.sol\":585:590  _name */\n      dup1\n        /* \"contracts/2_Storage.sol\":578:582  name */\n      0x01\n        /* \"contracts/2_Storage.sol\":578:590  name = _name */\n      swap1\n      dup2\n      tag_28\n      swap2\n      swap1\n      tag_29\n      jump\t// in\n    tag_28:\n      pop\n        /* \"contracts/2_Storage.sol\":366:597  function change_name(string memory _name) public {... */\n      pop\n      jump\t// out\n        /* \"#utility.yul\":7:106   */\n    tag_30:\n        /* \"#utility.yul\":59:65   */\n      0x00\n        /* \"#utility.yul\":93:98   */\n      dup2\n        /* \"#utility.yul\":87:99   */\n      mload\n        /* \"#utility.yul\":77:99   */\n      swap1\n      pop\n        /* \"#utility.yul\":7:106   */\n      swap2\n      swap1\n      pop\n      jump\t// out\n        /* \"#utility.yul\":112:281   */\n    tag_31:\n        /* \"#utility.yul\":196:207   */\n      0x00\n        /* \"#utility.yul\":230:236   */\n      dup3\n        /* \"#utility.yul\":225:228   */\n      dup3\n        /* \"#utility.yul\":218:237   */\n      mstore\n        /* \"#utility.yul\":270:274   */\n      0x20\n        /* \"#utility.yul\":265:268   */\n      dup3\n        /* \"#utility.yul\":261:275   */\n      add\n        /* \"#utility.yul\":246:275   */\n      swap1\n      pop\n        /* \"#utility.yul\":112:281   */\n      swap3\n      swap2\n      pop\n      pop\n      jump\t// out\n        /* \"#utility.yul\":287:426   */\n    tag_32:\n        /* \"#utility.yul\":376:382   */\n      dup3\n        /* \"#utility.yul\":371:374   */\n      dup2\n        /* \"#utility.yul\":366:369   */\n      dup4\n        /* \"#utility.yul\":360:383   */\n      mcopy\n        /* \"#utility.yul\":417:418   */\n      0x00\n        /* \"#utility.yul\":408:414   */\n      dup4\n        /* \"#utility.yul\":403:406   */\n      dup4\n        /* \"#utility.yul\":399:415   */\n      add\n        /* \"#utility.yul\":392:419   */\n      mstore\n        /* \"#utility.yul\":287:426   */\n      pop\n      pop\n      pop\n      jump\t// out\n        /* \"#utility.yul\":432:534   */\n    tag_33:\n        /* \"#utility.yul\":473:479   */\n      0x00\n        /* \"#utility.yul\":524:526   */\n      0x1f\n        /* \"#utility.yul\":520:527   */\n      not\n        /* \"#utility.yul\":515:517   */\n      0x1f\n        /* \"#utility.yul\":508:513   */\n      dup4\n        /* \"#utility.yul\":504:518   */\n      add\n        /* \"#utility.yul\":500:528   */\n      and\n        /* \"#utility.yul\":490:528   */\n      swap1\n      pop\n        /* \"#utility.yul\":432:534   */\n      swap2\n      swap1\n      pop\n      jump\t// out\n        /* \"#utility.yul\":540:917   */\n    tag_34:\n        /* \"#utility.yul\":628:631   */\n      0x00\n        /* \"#utility.yul\":656:695   */\n      tag_75\n        /* \"#utility.yul\":689:694   */\n      dup3\n        /* \"#utility.yul\":656:695   */\n      tag_30\n      jump\t// in\n    tag_75:\n        /* \"#utility.yul\":711:782   */\n      tag_76\n        /* \"#utility.yul\":775:781   */\n      dup2\n        /* \"#utility.yul\":770:773   */\n      dup6\n        /* \"#utility.yul\":711:782   */\n      tag_31\n      jump\t// in\n    tag_76:\n        /* \"#utility.yul\":704:782   */\n      swap4\n      pop\n        /* \"#utility.yul\":791:856   */\n      tag_77\n        /* \"#utility.yul\":849:855   */\n      dup2\n        /* \"#utility.yul\":844:847   */\n      dup6\n        /* \"#utility.yul\":837:841   */\n      0x20\n        /* \"#utility.yul\":830:835   */\n      dup7\n        /* \"#utility.yul\":826:842   */\n      add\n        /* \"#utility.yul\":791:856   */\n      tag_32\n      jump\t// in\n    tag_77:\n        /* \"#utility.yul\":881:910   */\n      tag_78\n        /* \"#utility.yul\":903:909   */\n      dup2\n        /* \"#utility.yul\":881:910   */\n      tag_33\n      jump\t// in\n    tag_78:\n        /* \"#utility.yul\":876:879   */\n      dup5\n        /* \"#utility.yul\":872:911   */\n      add\n        /* \"#utility.yul\":865:911   */\n      swap2\n      pop\n        /* \"#utility.yul\":632:917   */\n      pop\n        /* \"#utility.yul\":540:917   */\n      swap3\n      swap2\n      pop\n      pop\n      jump\t// out\n        /* \"#utility.yul\":923:1236   */\n    tag_9:\n        /* \"#utility.yul\":1036:1040   */\n      0x00\n        /* \"#utility.yul\":1074:1076   */\n      0x20\n        /* \"#utility.yul\":1063:1072   */\n      dup3\n        /* \"#utility.yul\":1059:1077   */\n      add\n        /* \"#utility.yul\":1051:1077   */\n      swap1\n      pop\n        /* \"#utility.yul\":1123:1132   */\n      dup2\n        /* \"#utility.yul\":1117:1121   */\n      dup2\n        /* \"#utility.yul\":1113:1133   */\n      sub\n        /* \"#utility.yul\":1109:1110   */\n      0x00\n        /* \"#utility.yul\":1098:1107   */\n      dup4\n        /* \"#utility.yul\":1094:1111   */\n      add\n        /* \"#utility.yul\":1087:1134   */\n      mstore\n        /* \"#utility.yul\":1151:1229   */\n      tag_80\n        /* \"#utility.yul\":1224:1228   */\n      dup2\n        /* \"#utility.yul\":1215:1221   */\n      dup5\n        /* \"#utility.yul\":1151:1229   */\n      tag_34\n      jump\t// in\n    tag_80:\n        /* \"#utility.yul\":1143:1229   */\n      swap1\n      pop\n        /* \"#utility.yul\":923:1236   */\n      swap3\n      swap2\n      pop\n      pop\n      jump\t// out\n        /* \"#utility.yul\":1242:1368   */\n    tag_35:\n        /* \"#utility.yul\":1279:1286   */\n      0x00\n        /* \"#utility.yul\":1319:1361   */\n      0xffffffffffffffffffffffffffffffffffffffff\n        /* \"#utility.yul\":1312:1317   */\n      dup3\n        /* \"#utility.yul\":1308:1362   */\n      and\n        /* \"#utility.yul\":1297:1362   */\n      swap1\n      pop\n        /* \"#utility.yul\":1242:1368   */\n      swap2\n      swap1\n      pop\n      jump\t// out\n        /* \"#utility.yul\":1374:1470   */\n    tag_36:\n        /* \"#utility.yul\":1411:1418   */\n      0x00\n        /* \"#utility.yul\":1440:1464   */\n      tag_83\n        /* \"#utility.yul\":1458:1463   */\n      dup3\n        /* \"#utility.yul\":1440:1464   */\n      tag_35\n      jump\t// in\n    tag_83:\n        /* \"#utility.yul\":1429:1464   */\n      swap1\n      pop\n        /* \"#utility.yul\":1374:1470   */\n      swap2\n      swap1\n      pop\n      jump\t// out\n        /* \"#utility.yul\":1476:1594   */\n    tag_37:\n        /* \"#utility.yul\":1563:1587   */\n      tag_85\n        /* \"#utility.yul\":1581:1586   */\n      dup2\n        /* \"#utility.yul\":1563:1587   */\n      tag_36\n      jump\t// in\n    tag_85:\n        /* \"#utility.yul\":1558:1561   */\n      dup3\n        /* \"#utility.yul\":1551:1588   */\n      mstore\n        /* \"#utility.yul\":1476:1594   */\n      pop\n      pop\n      jump\t// out\n        /* \"#utility.yul\":1600:1822   */\n    tag_13:\n        /* \"#utility.yul\":1693:1697   */\n      0x00\n        /* \"#utility.yul\":1731:1733   */\n      0x20\n        /* \"#utility.yul\":1720:1729   */\n      dup3\n        /* \"#utility.yul\":1716:1734   */\n      add\n        /* \"#utility.yul\":1708:1734   */\n      swap1\n      pop\n        /* \"#utility.yul\":1744:1815   */\n      tag_87\n        /* \"#utility.yul\":1812:1813   */\n      0x00\n        /* \"#utility.yul\":1801:1810   */\n      dup4\n        /* \"#utility.yul\":1797:1814   */\n      add\n        /* \"#utility.yul\":1788:1794   */\n      dup5\n        /* \"#utility.yul\":1744:1815   */\n      tag_37\n      jump\t// in\n    tag_87:\n        /* \"#utility.yul\":1600:1822   */\n      swap3\n      swap2\n      pop\n      pop\n      jump\t// out\n        /* \"#utility.yul\":1828:1903   */\n    tag_38:\n        /* \"#utility.yul\":1861:1867   */\n      0x00\n        /* \"#utility.yul\":1894:1896   */\n      0x40\n        /* \"#utility.yul\":1888:1897   */\n      mload\n        /* \"#utility.yul\":1878:1897   */\n      swap1\n      pop\n        /* \"#utility.yul\":1828:1903   */\n      swap1\n      jump\t// out\n        /* \"#utility.yul\":1909:2026   */\n    tag_39:\n        /* \"#utility.yul\":2018:2019   */\n      0x00\n        /* \"#utility.yul\":2015:2016   */\n      0x00\n        /* \"#utility.yul\":2008:2020   */\n      revert\n        /* \"#utility.yul\":2032:2149   */\n    tag_40:\n        /* \"#utility.yul\":2141:2142   */\n      0x00\n        /* \"#utility.yul\":2138:2139   */\n      0x00\n        /* \"#utility.yul\":2131:2143   */\n      revert\n        /* \"#utility.yul\":2155:2272   */\n    tag_41:\n        /* \"#utility.yul\":2264:2265   */\n      0x00\n        /* \"#utility.yul\":2261:2262   */\n      0x00\n        /* \"#utility.yul\":2254:2266   */\n      revert\n        /* \"#utility.yul\":2278:2395   */\n    tag_42:\n        /* \"#utility.yul\":2387:2388   */\n      0x00\n        /* \"#utility.yul\":2384:2385   */\n      0x00\n        /* \"#utility.yul\":2377:2389   */\n      revert\n        /* \"#utility.yul\":2401:2581   */\n    tag_43:\n        /* \"#utility.yul\":2449:2526   */\n      0x4e487b7100000000000000000000000000000000000000000000000000000000\n        /* \"#utility.yul\":2446:2447   */\n      0x00\n        /* \"#utility.yul\":2439:2527   */\n      mstore\n        /* \"#utility.yul\":2546:2550   */\n      0x41\n        /* \"#utility.yul\":2543:2544   */\n      0x04\n        /* \"#utility.yul\":2536:2551   */\n      mstore\n        /* \"#utility.yul\":2570:2574   */\n      0x24\n        /* \"#utility.yul\":2567:2568   */\n      0x00\n        /* \"#utility.yul\":2560:2575   */\n      revert\n        /* \"#utility.yul\":2587:2868   */\n    tag_44:\n        /* \"#utility.yul\":2670:2697   */\n      tag_95\n        /* \"#utility.yul\":2692:2696   */\n      dup3\n        /* \"#utility.yul\":2670:2697   */\n      tag_33\n      jump\t// in\n    tag_95:\n        /* \"#utility.yul\":2662:2668   */\n      dup2\n        /* \"#utility.yul\":2658:2698   */\n      add\n        /* \"#utility.yul\":2800:2806   */\n      dup2\n        /* \"#utility.yul\":2788:2798   */\n      dup2\n        /* \"#utility.yul\":2785:2807   */\n      lt\n        /* \"#utility.yul\":2764:2782   */\n      0xffffffffffffffff\n        /* \"#utility.yul\":2752:2762   */\n      dup3\n        /* \"#utility.yul\":2749:2783   */\n      gt\n        /* \"#utility.yul\":2746:2808   */\n      or\n        /* \"#utility.yul\":2743:2831   */\n      iszero\n      tag_96\n      jumpi\n        /* \"#utility.yul\":2811:2829   */\n      tag_97\n      tag_43\n      jump\t// in\n    tag_97:\n        /* \"#utility.yul\":2743:2831   */\n    tag_96:\n        /* \"#utility.yul\":2851:2861   */\n      dup1\n        /* \"#utility.yul\":2847:2849   */\n      0x40\n        /* \"#utility.yul\":2840:2862   */\n      mstore\n        /* \"#utility.yul\":2630:2868   */\n      pop\n        /* \"#utility.yul\":2587:2868   */\n      pop\n      pop\n      jump\t// out\n        /* \"#utility.yul\":2874:3003   */\n    tag_45:\n        /* \"#utility.yul\":2908:2914   */\n      0x00\n        /* \"#utility.yul\":2935:2955   */\n      tag_99\n      tag_38\n      jump\t// in\n    tag_99:\n        /* \"#utility.yul\":2925:2955   */\n      swap1\n      pop\n        /* \"#utility.yul\":2964:2997   */\n      tag_100\n        /* \"#utility.yul\":2992:2996   */\n      dup3\n        /* \"#utility.yul\":2984:2990   */\n      dup3\n        /* \"#utility.yul\":2964:2997   */\n      tag_44\n      jump\t// in\n    tag_100:\n        /* \"#utility.yul\":2874:3003   */\n      swap2\n      swap1\n      pop\n      jump\t// out\n        /* \"#utility.yul\":3009:3317   */\n    tag_46:\n        /* \"#utility.yul\":3071:3075   */\n      0x00\n        /* \"#utility.yul\":3161:3179   */\n      0xffffffffffffffff\n        /* \"#utility.yul\":3153:3159   */\n      dup3\n        /* \"#utility.yul\":3150:3180   */\n      gt\n        /* \"#utility.yul\":3147:3203   */\n      iszero\n      tag_102\n      jumpi\n        /* \"#utility.yul\":3183:3201   */\n      tag_103\n      tag_43\n      jump\t// in\n    tag_103:\n        /* \"#utility.yul\":3147:3203   */\n    tag_102:\n        /* \"#utility.yul\":3221:3250   */\n      tag_104\n        /* \"#utility.yul\":3243:3249   */\n      dup3\n        /* \"#utility.yul\":3221:3250   */\n      tag_33\n      jump\t// in\n    tag_104:\n        /* \"#utility.yul\":3213:3250   */\n      swap1\n      pop\n        /* \"#utility.yul\":3305:3309   */\n      0x20\n        /* \"#utility.yul\":3299:3303   */\n      dup2\n        /* \"#utility.yul\":3295:3310   */\n      add\n        /* \"#utility.yul\":3287:3310   */\n      swap1\n      pop\n        /* \"#utility.yul\":3009:3317   */\n      swap2\n      swap1\n      pop\n      jump\t// out\n        /* \"#utility.yul\":3323:3471   */\n    tag_47:\n        /* \"#utility.yul\":3421:3427   */\n      dup3\n        /* \"#utility.yul\":3416:3419   */\n      dup2\n        /* \"#utility.yul\":3411:3414   */\n      dup4\n        /* \"#utility.yul\":3398:3428   */\n      calldatacopy\n        /* \"#utility.yul\":3462:3463   */\n      0x00\n        /* \"#utility.yul\":3453:3459   */\n      dup4\n        /* \"#utility.yul\":3448:3451   */\n      dup4\n        /* \"#utility.yul\":3444:3460   */\n      add\n        /* \"#utility.yul\":3437:3464   */\n      mstore\n        /* \"#utility.yul\":3323:3471   */\n      pop\n      pop\n      pop\n      jump\t// out\n        /* \"#utility.yul\":3477:3902   */\n    tag_48:\n        /* \"#utility.yul\":3555:3560   */\n      0x00\n        /* \"#utility.yul\":3580:3646   */\n      tag_107\n        /* \"#utility.yul\":3596:3645   */\n      tag_108\n        /* \"#utility.yul\":3638:3644   */\n      dup5\n        /* \"#utility.yul\":3596:3645   */\n      tag_46\n      jump\t// in\n    tag_108:\n        /* \"#utility.yul\":3580:3646   */\n      tag_45\n      jump\t// in\n    tag_107:\n        /* \"#utility.yul\":3571:3646   */\n      swap1\n      pop\n        /* \"#utility.yul\":3669:3675   */\n      dup3\n        /* \"#utility.yul\":3662:3667   */\n      dup2\n        /* \"#utility.yul\":3655:3676   */\n      mstore\n        /* \"#utility.yul\":3707:3711   */\n      0x20\n        /* \"#utility.yul\":3700:3705   */\n      dup2\n        /* \"#utility.yul\":3696:3712   */\n      add\n        /* \"#utility.yul\":3745:3748   */\n      dup5\n        /* \"#utility.yul\":3736:3742   */\n      dup5\n        /* \"#utility.yul\":3731:3734   */\n      dup5\n        /* \"#utility.yul\":3727:3743   */\n      add\n        /* \"#utility.yul\":3724:3749   */\n      gt\n        /* \"#utility.yul\":3721:3833   */\n      iszero\n      tag_109\n      jumpi\n        /* \"#utility.yul\":3752:3831   */\n      tag_110\n      tag_42\n      jump\t// in\n    tag_110:\n        /* \"#utility.yul\":3721:3833   */\n    tag_109:\n        /* \"#utility.yul\":3842:3896   */\n      tag_111\n        /* \"#utility.yul\":3889:3895   */\n      dup5\n        /* \"#utility.yul\":3884:3887   */\n      dup3\n        /* \"#utility.yul\":3879:3882   */\n      dup6\n        /* \"#utility.yul\":3842:3896   */\n      tag_47\n      jump\t// in\n    tag_111:\n        /* \"#utility.yul\":3561:3902   */\n      pop\n        /* \"#utility.yul\":3477:3902   */\n      swap4\n      swap3\n      pop\n      pop\n      pop\n      jump\t// out\n        /* \"#utility.yul\":3922:4262   */\n    tag_49:\n        /* \"#utility.yul\":3978:3983   */\n      0x00\n        /* \"#utility.yul\":4027:4030   */\n      dup3\n        /* \"#utility.yul\":4020:4024   */\n      0x1f\n        /* \"#utility.yul\":4012:4018   */\n      dup4\n        /* \"#utility.yul\":4008:4025   */\n      add\n        /* \"#utility.yul\":4004:4031   */\n      slt\n        /* \"#utility.yul\":3994:4116   */\n      tag_113\n      jumpi\n        /* \"#utility.yul\":4035:4114   */\n      tag_114\n      tag_41\n      jump\t// in\n    tag_114:\n        /* \"#utility.yul\":3994:4116   */\n    tag_113:\n        /* \"#utility.yul\":4152:4158   */\n      dup2\n        /* \"#utility.yul\":4139:4159   */\n      calldataload\n        /* \"#utility.yul\":4177:4256   */\n      tag_115\n        /* \"#utility.yul\":4252:4255   */\n      dup5\n        /* \"#utility.yul\":4244:4250   */\n      dup3\n        /* \"#utility.yul\":4237:4241   */\n      0x20\n        /* \"#utility.yul\":4229:4235   */\n      dup7\n        /* \"#utility.yul\":4225:4242   */\n      add\n        /* \"#utility.yul\":4177:4256   */\n      tag_48\n      jump\t// in\n    tag_115:\n        /* \"#utility.yul\":4168:4256   */\n      swap2\n      pop\n        /* \"#utility.yul\":3984:4262   */\n      pop\n        /* \"#utility.yul\":3922:4262   */\n      swap3\n      swap2\n      pop\n      pop\n      jump\t// out\n        /* \"#utility.yul\":4268:4777   */\n    tag_16:\n        /* \"#utility.yul\":4337:4343   */\n      0x00\n        /* \"#utility.yul\":4386:4388   */\n      0x20\n        /* \"#utility.yul\":4374:4383   */\n      dup3\n        /* \"#utility.yul\":4365:4372   */\n      dup5\n        /* \"#utility.yul\":4361:4384   */\n      sub\n        /* \"#utility.yul\":4357:4389   */\n      slt\n        /* \"#utility.yul\":4354:4473   */\n      iszero\n      tag_117\n      jumpi\n        /* \"#utility.yul\":4392:4471   */\n      tag_118\n      tag_39\n      jump\t// in\n    tag_118:\n        /* \"#utility.yul\":4354:4473   */\n    tag_117:\n        /* \"#utility.yul\":4540:4541   */\n      0x00\n        /* \"#utility.yul\":4529:4538   */\n      dup3\n        /* \"#utility.yul\":4525:4542   */\n      add\n        /* \"#utility.yul\":4512:4543   */\n      calldataload\n        /* \"#utility.yul\":4570:4588   */\n      0xffffffffffffffff\n        /* \"#utility.yul\":4562:4568   */\n      dup2\n        /* \"#utility.yul\":4559:4589   */\n      gt\n        /* \"#utility.yul\":4556:4673   */\n      iszero\n      tag_119\n      jumpi\n        /* \"#utility.yul\":4592:4671   */\n      tag_120\n      tag_40\n      jump\t// in\n    tag_120:\n        /* \"#utility.yul\":4556:4673   */\n    tag_119:\n        /* \"#utility.yul\":4697:4760   */\n      tag_121\n        /* \"#utility.yul\":4752:4759   */\n      dup5\n        /* \"#utility.yul\":4743:4749   */\n      dup3\n        /* \"#utility.yul\":4732:4741   */\n      dup6\n        /* \"#utility.yul\":4728:4750   */\n      add\n        /* \"#utility.yul\":4697:4760   */\n      tag_49\n      jump\t// in\n    tag_121:\n        /* \"#utility.yul\":4687:4760   */\n      swap2\n      pop\n        /* \"#utility.yul\":4483:4770   */\n      pop\n        /* \"#utility.yul\":4268:4777   */\n      swap3\n      swap2\n      pop\n      pop\n      jump\t// out\n        /* \"#utility.yul\":4783:4963   */\n    tag_50:\n        /* \"#utility.yul\":4831:4908   */\n      0x4e487b7100000000000000000000000000000000000000000000000000000000\n        /* \"#utility.yul\":4828:4829   */\n      0x00\n        /* \"#utility.yul\":4821:4909   */\n      mstore\n        /* \"#utility.yul\":4928:4932   */\n      0x22\n        /* \"#utility.yul\":4925:4926   */\n      0x04\n        /* \"#utility.yul\":4918:4933   */\n      mstore\n        /* \"#utility.yul\":4952:4956   */\n      0x24\n        /* \"#utility.yul\":4949:4950   */\n      0x00\n        /* \"#utility.yul\":4942:4957   */\n      revert\n        /* \"#utility.yul\":4969:5289   */\n    tag_19:\n        /* \"#utility.yul\":5013:5019   */\n      0x00\n        /* \"#utility.yul\":5050:5051   */\n      0x02\n        /* \"#utility.yul\":5044:5048   */\n      dup3\n        /* \"#utility.yul\":5040:5052   */\n      div\n        /* \"#utility.yul\":5030:5052   */\n      swap1\n      pop\n        /* \"#utility.yul\":5097:5098   */\n      0x01\n        /* \"#utility.yul\":5091:5095   */\n      dup3\n        /* \"#utility.yul\":5087:5099   */\n      and\n        /* \"#utility.yul\":5118:5136   */\n      dup1\n        /* \"#utility.yul\":5108:5189   */\n      tag_124\n      jumpi\n        /* \"#utility.yul\":5174:5178   */\n      0x7f\n        /* \"#utility.yul\":5166:5172   */\n      dup3\n        /* \"#utility.yul\":5162:5179   */\n      and\n        /* \"#utility.yul\":5152:5179   */\n      swap2\n      pop\n        /* \"#utility.yul\":5108:5189   */\n    tag_124:\n        /* \"#utility.yul\":5236:5238   */\n      0x20\n        /* \"#utility.yul\":5228:5234   */\n      dup3\n        /* \"#utility.yul\":5225:5239   */\n      lt\n        /* \"#utility.yul\":5205:5223   */\n      dup2\n        /* \"#utility.yul\":5202:5240   */\n      sub\n        /* \"#utility.yul\":5199:5283   */\n      tag_125\n      jumpi\n        /* \"#utility.yul\":5255:5273   */\n      tag_126\n      tag_50\n      jump\t// in\n    tag_126:\n        /* \"#utility.yul\":5199:5283   */\n    tag_125:\n        /* \"#utility.yul\":5020:5289   */\n      pop\n        /* \"#utility.yul\":4969:5289   */\n      swap2\n      swap1\n      pop\n      jump\t// out\n        /* \"#utility.yul\":5295:5467   */\n    tag_51:\n        /* \"#utility.yul\":5435:5459   */\n      0x596f7520617265206e6f7420746865206f776e65722100000000000000000000\n        /* \"#utility.yul\":5431:5432   */\n      0x00\n        /* \"#utility.yul\":5423:5429   */\n      dup3\n        /* \"#utility.yul\":5419:5433   */\n      add\n        /* \"#utility.yul\":5412:5460   */\n      mstore\n        /* \"#utility.yul\":5295:5467   */\n      pop\n      jump\t// out\n        /* \"#utility.yul\":5473:5839   */\n    tag_52:\n        /* \"#utility.yul\":5615:5618   */\n      0x00\n        /* \"#utility.yul\":5636:5703   */\n      tag_129\n        /* \"#utility.yul\":5700:5702   */\n      0x16\n        /* \"#utility.yul\":5695:5698   */\n      dup4\n        /* \"#utility.yul\":5636:5703   */\n      tag_31\n      jump\t// in\n    tag_129:\n        /* \"#utility.yul\":5629:5703   */\n      swap2\n      pop\n        /* \"#utility.yul\":5712:5805   */\n      tag_130\n        /* \"#utility.yul\":5801:5804   */\n      dup3\n        /* \"#utility.yul\":5712:5805   */\n      tag_51\n      jump\t// in\n    tag_130:\n        /* \"#utility.yul\":5830:5832   */\n      0x20\n        /* \"#utility.yul\":5825:5828   */\n      dup3\n        /* \"#utility.yul\":5821:5833   */\n      add\n        /* \"#utility.yul\":5814:5833   */\n      swap1\n      pop\n        /* \"#utility.yul\":5473:5839   */\n      swap2\n      swap1\n      pop\n      jump\t// out\n        /* \"#utility.yul\":5845:6264   */\n    tag_27:\n        /* \"#utility.yul\":6011:6015   */\n      0x00\n        /* \"#utility.yul\":6049:6051   */\n      0x20\n        /* \"#utility.yul\":6038:6047   */\n      dup3\n        /* \"#utility.yul\":6034:6052   */\n      add\n        /* \"#utility.yul\":6026:6052   */\n      swap1\n      pop\n        /* \"#utility.yul\":6098:6107   */\n      dup2\n        /* \"#utility.yul\":6092:6096   */\n      dup2\n        /* \"#utility.yul\":6088:6108   */\n      sub\n        /* \"#utility.yul\":6084:6085   */\n      0x00\n        /* \"#utility.yul\":6073:6082   */\n      dup4\n        /* \"#utility.yul\":6069:6086   */\n      add\n        /* \"#utility.yul\":6062:6109   */\n      mstore\n        /* \"#utility.yul\":6126:6257   */\n      tag_132\n        /* \"#utility.yul\":6252:6256   */\n      dup2\n        /* \"#utility.yul\":6126:6257   */\n      tag_52\n      jump\t// in\n    tag_132:\n        /* \"#utility.yul\":6118:6257   */\n      swap1\n      pop\n        /* \"#utility.yul\":5845:6264   */\n      swap2\n      swap1\n      pop\n      jump\t// out\n        /* \"#utility.yul\":6270:6411   */\n    tag_53:\n        /* \"#utility.yul\":6319:6323   */\n      0x00\n        /* \"#utility.yul\":6342:6345   */\n      dup2\n        /* \"#utility.yul\":6334:6345   */\n      swap1\n      pop\n        /* \"#utility.yul\":6365:6368   */\n      dup2\n        /* \"#utility.yul\":6362:6363   */\n      0x00\n        /* \"#utility.yul\":6355:6369   */\n      mstore\n        /* \"#utility.yul\":6399:6403   */\n      0x20\n        /* \"#utility.yul\":6396:6397   */\n      0x00\n        /* \"#utility.yul\":6386:6404   */\n      keccak256\n        /* \"#utility.yul\":6378:6404   */\n      swap1\n      pop\n        /* \"#utility.yul\":6270:6411   */\n      swap2\n      swap1\n      pop\n      jump\t// out\n        /* \"#utility.yul\":6417:6510   */\n    tag_54:\n        /* \"#utility.yul\":6454:6460   */\n      0x00\n        /* \"#utility.yul\":6501:6503   */\n      0x20\n        /* \"#utility.yul\":6496:6498   */\n      0x1f\n        /* \"#utility.yul\":6489:6494   */\n      dup4\n        /* \"#utility.yul\":6485:6499   */\n      add\n        /* \"#utility.yul\":6481:6504   */\n      div\n        /* \"#utility.yul\":6471:6504   */\n      swap1\n      pop\n        /* \"#utility.yul\":6417:6510   */\n      swap2\n      swap1\n      pop\n      jump\t// out\n        /* \"#utility.yul\":6516:6623   */\n    tag_55:\n        /* \"#utility.yul\":6560:6568   */\n      0x00\n        /* \"#utility.yul\":6610:6615   */\n      dup3\n        /* \"#utility.yul\":6604:6608   */\n      dup3\n        /* \"#utility.yul\":6600:6616   */\n      shl\n        /* \"#utility.yul\":6579:6616   */\n      swap1\n      pop\n        /* \"#utility.yul\":6516:6623   */\n      swap3\n      swap2\n      pop\n      pop\n      jump\t// out\n        /* \"#utility.yul\":6629:7022   */\n    tag_56:\n        /* \"#utility.yul\":6698:6704   */\n      0x00\n        /* \"#utility.yul\":6748:6749   */\n      0x08\n        /* \"#utility.yul\":6736:6746   */\n      dup4\n        /* \"#utility.yul\":6732:6750   */\n      mul\n        /* \"#utility.yul\":6771:6868   */\n      tag_137\n        /* \"#utility.yul\":6801:6867   */\n      0xffffffffffffffffffffffffffffffffffffffffffffffffffffffffffffffff\n        /* \"#utility.yul\":6790:6799   */\n      dup3\n        /* \"#utility.yul\":6771:6868   */\n      tag_55\n      jump\t// in\n    tag_137:\n        /* \"#utility.yul\":6889:6928   */\n      tag_138\n        /* \"#utility.yul\":6919:6927   */\n      dup7\n        /* \"#utility.yul\":6908:6917   */\n      dup4\n        /* \"#utility.yul\":6889:6928   */\n      tag_55\n      jump\t// in\n    tag_138:\n        /* \"#utility.yul\":6877:6928   */\n      swap6\n      pop\n        /* \"#utility.yul\":6961:6965   */\n      dup1\n        /* \"#utility.yul\":6957:6966   */\n      not\n        /* \"#utility.yul\":6950:6955   */\n      dup5\n        /* \"#utility.yul\":6946:6967   */\n      and\n        /* \"#utility.yul\":6937:6967   */\n      swap4\n      pop\n        /* \"#utility.yul\":7010:7014   */\n      dup1\n        /* \"#utility.yul\":7000:7008   */\n      dup7\n        /* \"#utility.yul\":6996:7015   */\n      and\n        /* \"#utility.yul\":6989:6994   */\n      dup5\n        /* \"#utility.yul\":6986:7016   */\n      or\n        /* \"#utility.yul\":6976:7016   */\n      swap3\n      pop\n        /* \"#utility.yul\":6705:7022   */\n      pop\n      pop\n        /* \"#utility.yul\":6629:7022   */\n      swap4\n      swap3\n      pop\n      pop\n      pop\n      jump\t// out\n        /* \"#utility.yul\":7028:7105   */\n    tag_57:\n        /* \"#utility.yul\":7065:7072   */\n      0x00\n        /* \"#utility.yul\":7094:7099   */\n      dup2\n        /* \"#utility.yul\":7083:7099   */\n      swap1\n      pop\n        /* \"#utility.yul\":7028:7105   */\n      swap2\n      swap1\n      pop\n      jump\t// out\n        /* \"#utility.yul\":7111:7171   */\n    tag_58:\n        /* \"#utility.yul\":7139:7142   */\n      0x00\n        /* \"#utility.yul\":7160:7165   */\n      dup2\n        /* \"#utility.yul\":7153:7165   */\n      swap1\n      pop\n        /* \"#utility.yul\":7111:7171   */\n      swap2\n      swap1\n      pop\n      jump\t// out\n        /* \"#utility.yul\":7177:7319   */\n    tag_59:\n        /* \"#utility.yul\":7227:7236   */\n      0x00\n        /* \"#utility.yul\":7260:7313   */\n      tag_142\n        /* \"#utility.yul\":7278:7312   */\n      tag_143\n        /* \"#utility.yul\":7287:7311   */\n      tag_144\n        /* \"#utility.yul\":7305:7310   */\n      dup5\n        /* \"#utility.yul\":7287:7311   */\n      tag_57\n      jump\t// in\n    tag_144:\n        /* \"#utility.yul\":7278:7312   */\n      tag_58\n      jump\t// in\n    tag_143:\n        /* \"#utility.yul\":7260:7313   */\n      tag_57\n      jump\t// in\n    tag_142:\n        /* \"#utility.yul\":7247:7313   */\n      swap1\n      pop\n        /* \"#utility.yul\":7177:7319   */\n      swap2\n      swap1\n      pop\n      jump\t// out\n        /* \"#utility.yul\":7325:7400   */\n    tag_60:\n        /* \"#utility.yul\":7368:7371   */\n      0x00\n        /* \"#utility.yul\":7389:7394   */\n      dup2\n        /* \"#utility.yul\":7382:7394   */\n      swap1\n      pop\n        /* \"#utility.yul\":7325:7400   */\n      swap2\n      swap1\n      pop\n      jump\t// out\n        /* \"#utility.yul\":7406:7675   */\n    tag_61:\n        /* \"#utility.yul\":7516:7555   */\n      tag_147\n        /* \"#utility.yul\":7547:7554   */\n      dup4\n        /* \"#utility.yul\":7516:7555   */\n      tag_59\n      jump\t// in\n    tag_147:\n        /* \"#utility.yul\":7577:7668   */\n      tag_148\n        /* \"#utility.yul\":7626:7667   */\n      tag_149\n        /* \"#utility.yul\":7650:7666   */\n      dup3\n        /* \"#utility.yul\":7626:7667   */\n      tag_60\n      jump\t// in\n    tag_149:\n        /* \"#utility.yul\":7618:7624   */\n      dup5\n        /* \"#utility.yul\":7611:7615   */\n      dup5\n        /* \"#utility.yul\":7605:7616   */\n      sload\n        /* \"#utility.yul\":7577:7668   */\n      tag_56\n      jump\t// in\n    tag_148:\n        /* \"#utility.yul\":7571:7575   */\n      dup3\n        /* \"#utility.yul\":7564:7669   */\n      sstore\n        /* \"#utility.yul\":7482:7675   */\n      pop\n        /* \"#utility.yul\":7406:7675   */\n      pop\n      pop\n      pop\n      jump\t// out\n        /* \"#utility.yul\":7681:7754   */\n    tag_62:\n        /* \"#utility.yul\":7726:7729   */\n      0x00\n        /* \"#utility.yul\":7747:7748   */\n      0x00\n        /* \"#utility.yul\":7740:7748   */\n      swap1\n      pop\n        /* \"#utility.yul\":7681:7754   */\n      swap1\n      jump\t// out\n        /* \"#utility.yul\":7760:7949   */\n    tag_63:\n        /* \"#utility.yul\":7837:7869   */\n      tag_152\n      tag_62\n      jump\t// in\n    tag_152:\n        /* \"#utility.yul\":7878:7943   */\n      tag_153\n        /* \"#utility.yul\":7936:7942   */\n      dup2\n        /* \"#utility.yul\":7928:7934   */\n      dup5\n        /* \"#utility.yul\":7922:7926   */\n      dup5\n        /* \"#utility.yul\":7878:7943   */\n      tag_61\n      jump\t// in\n    tag_153:\n        /* \"#utility.yul\":7813:7949   */\n      pop\n        /* \"#utility.yul\":7760:7949   */\n      pop\n      pop\n      jump\t// out\n        /* \"#utility.yul\":7955:8141   */\n    tag_64:\n        /* \"#utility.yul\":8015:8135   */\n    tag_155:\n        /* \"#utility.yul\":8032:8035   */\n      dup2\n        /* \"#utility.yul\":8025:8030   */\n      dup2\n        /* \"#utility.yul\":8022:8036   */\n      lt\n        /* \"#utility.yul\":8015:8135   */\n      iszero\n      tag_157\n      jumpi\n        /* \"#utility.yul\":8086:8125   */\n      tag_158\n        /* \"#utility.yul\":8123:8124   */\n      0x00\n        /* \"#utility.yul\":8116:8121   */\n      dup3\n        /* \"#utility.yul\":8086:8125   */\n      tag_63\n      jump\t// in\n    tag_158:\n        /* \"#utility.yul\":8059:8060   */\n      0x01\n        /* \"#utility.yul\":8052:8057   */\n      dup2\n        /* \"#utility.yul\":8048:8061   */\n      add\n        /* \"#utility.yul\":8039:8061   */\n      swap1\n      pop\n        /* \"#utility.yul\":8015:8135   */\n      jump(tag_155)\n    tag_157:\n        /* \"#utility.yul\":7955:8141   */\n      pop\n      pop\n      jump\t// out\n        /* \"#utility.yul\":8147:8690   */\n    tag_65:\n        /* \"#utility.yul\":8248:8250   */\n      0x1f\n        /* \"#utility.yul\":8243:8246   */\n      dup3\n        /* \"#utility.yul\":8240:8251   */\n      gt\n        /* \"#utility.yul\":8237:8683   */\n      iszero\n      tag_160\n      jumpi\n        /* \"#utility.yul\":8282:8320   */\n      tag_161\n        /* \"#utility.yul\":8314:8319   */\n      dup2\n        /* \"#utility.yul\":8282:8320   */\n      tag_53\n      jump\t// in\n    tag_161:\n        /* \"#utility.yul\":8366:8395   */\n      tag_162\n        /* \"#utility.yul\":8384:8394   */\n      dup5\n        /* \"#utility.yul\":8366:8395   */\n      tag_54\n      jump\t// in\n    tag_162:\n        /* \"#utility.yul\":8356:8364   */\n      dup2\n        /* \"#utility.yul\":8352:8396   */\n      add\n        /* \"#utility.yul\":8549:8551   */\n      0x20\n        /* \"#utility.yul\":8537:8547   */\n      dup6\n        /* \"#utility.yul\":8534:8552   */\n      lt\n        /* \"#utility.yul\":8531:8580   */\n      iszero\n      tag_163\n      jumpi\n        /* \"#utility.yul\":8570:8578   */\n      dup2\n        /* \"#utility.yul\":8555:8578   */\n      swap1\n      pop\n        /* \"#utility.yul\":8531:8580   */\n    tag_163:\n        /* \"#utility.yul\":8593:8673   */\n      tag_164\n        /* \"#utility.yul\":8649:8671   */\n      tag_165\n        /* \"#utility.yul\":8667:8670   */\n      dup6\n        /* \"#utility.yul\":8649:8671   */\n      tag_54\n      jump\t// in\n    tag_165:\n        /* \"#utility.yul\":8639:8647   */\n      dup4\n        /* \"#utility.yul\":8635:8672   */\n      add\n        /* \"#utility.yul\":8622:8633   */\n      dup3\n        /* \"#utility.yul\":8593:8673   */\n      tag_64\n      jump\t// in\n    tag_164:\n        /* \"#utility.yul\":8252:8683   */\n      pop\n      pop\n        /* \"#utility.yul\":8237:8683   */\n    tag_160:\n        /* \"#utility.yul\":8147:8690   */\n      pop\n      pop\n      pop\n      jump\t// out\n        /* \"#utility.yul\":8696:8813   */\n    tag_66:\n        /* \"#utility.yul\":8750:8758   */\n      0x00\n        /* \"#utility.yul\":8800:8805   */\n      dup3\n        /* \"#utility.yul\":8794:8798   */\n      dup3\n        /* \"#utility.yul\":8790:8806   */\n      shr\n        /* \"#utility.yul\":8769:8806   */\n      swap1\n      pop\n        /* \"#utility.yul\":8696:8813   */\n      swap3\n      swap2\n      pop\n      pop\n      jump\t// out\n        /* \"#utility.yul\":8819:8988   */\n    tag_67:\n        /* \"#utility.yul\":8863:8869   */\n      0x00\n        /* \"#utility.yul\":8896:8947   */\n      tag_168\n        /* \"#utility.yul\":8944:8945   */\n      0x00\n        /* \"#utility.yul\":8940:8946   */\n      not\n        /* \"#utility.yul\":8932:8937   */\n      dup5\n        /* \"#utility.yul\":8929:8930   */\n      0x08\n        /* \"#utility.yul\":8925:8938   */\n      mul\n        /* \"#utility.yul\":8896:8947   */\n      tag_66\n      jump\t// in\n    tag_168:\n        /* \"#utility.yul\":8892:8948   */\n      not\n        /* \"#utility.yul\":8977:8981   */\n      dup1\n        /* \"#utility.yul\":8971:8975   */\n      dup4\n        /* \"#utility.yul\":8967:8982   */\n      and\n        /* \"#utility.yul\":8957:8982   */\n      swap2\n      pop\n        /* \"#utility.yul\":8870:8988   */\n      pop\n        /* \"#utility.yul\":8819:8988   */\n      swap3\n      swap2\n      pop\n      pop\n      jump\t// out\n        /* \"#utility.yul\":8993:9288   */\n    tag_68:\n        /* \"#utility.yul\":9069:9073   */\n      0x00\n        /* \"#utility.yul\":9215:9244   */\n      tag_170\n        /* \"#utility.yul\":9240:9243   */\n      dup4\n        /* \"#utility.yul\":9234:9238   */\n      dup4\n        /* \"#utility.yul\":9215:9244   */\n      tag_67\n      jump\t// in\n    tag_170:\n        /* \"#utility.yul\":9207:9244   */\n      swap2\n      pop\n        /* \"#utility.yul\":9277:9280   */\n      dup3\n        /* \"#utility.yul\":9274:9275   */\n      0x02\n        /* \"#utility.yul\":9270:9281   */\n      mul\n        /* \"#utility.yul\":9264:9268   */\n      dup3\n        /* \"#utility.yul\":9261:9282   */\n      or\n        /* \"#utility.yul\":9253:9282   */\n      swap1\n      pop\n        /* \"#utility.yul\":8993:9288   */\n      swap3\n      swap2\n      pop\n      pop\n      jump\t// out\n        /* \"#utility.yul\":9293:10688   */\n    tag_29:\n        /* \"#utility.yul\":9410:9447   */\n      tag_172\n        /* \"#utility.yul\":9443:9446   */\n      dup3\n        /* \"#utility.yul\":9410:9447   */\n      tag_30\n      jump\t// in\n    tag_172:\n        /* \"#utility.yul\":9512:9530   */\n      0xffffffffffffffff\n        /* \"#utility.yul\":9504:9510   */\n      dup2\n        /* \"#utility.yul\":9501:9531   */\n      gt\n        /* \"#utility.yul\":9498:9554   */\n      iszero\n      tag_173\n      jumpi\n        /* \"#utility.yul\":9534:9552   */\n      tag_174\n      tag_43\n      jump\t// in\n    tag_174:\n        /* \"#utility.yul\":9498:9554   */\n    tag_173:\n        /* \"#utility.yul\":9578:9616   */\n      tag_175\n        /* \"#utility.yul\":9610:9614   */\n      dup3\n        /* \"#utility.yul\":9604:9615   */\n      sload\n        /* \"#utility.yul\":9578:9616   */\n      tag_19\n      jump\t// in\n    tag_175:\n        /* \"#utility.yul\":9663:9730   */\n      tag_176\n        /* \"#utility.yul\":9723:9729   */\n      dup3\n        /* \"#utility.yul\":9715:9721   */\n      dup3\n        /* \"#utility.yul\":9709:9713   */\n      dup6\n        /* \"#utility.yul\":9663:9730   */\n      tag_65\n      jump\t// in\n    tag_176:\n        /* \"#utility.yul\":9757:9758   */\n      0x00\n        /* \"#utility.yul\":9781:9785   */\n      0x20\n        /* \"#utility.yul\":9768:9785   */\n      swap1\n      pop\n        /* \"#utility.yul\":9813:9815   */\n      0x1f\n        /* \"#utility.yul\":9805:9811   */\n      dup4\n        /* \"#utility.yul\":9802:9816   */\n      gt\n        /* \"#utility.yul\":9830:9831   */\n      0x01\n        /* \"#utility.yul\":9825:10443   */\n      dup2\n      eq\n      tag_178\n      jumpi\n        /* \"#utility.yul\":10487:10488   */\n      0x00\n        /* \"#utility.yul\":10504:10510   */\n      dup5\n        /* \"#utility.yul\":10501:10578   */\n      iszero\n      tag_179\n      jumpi\n        /* \"#utility.yul\":10553:10562   */\n      dup3\n        /* \"#utility.yul\":10548:10551   */\n      dup8\n        /* \"#utility.yul\":10544:10563   */\n      add\n        /* \"#utility.yul\":10538:10564   */\n      mload\n        /* \"#utility.yul\":10529:10564   */\n      swap1\n      pop\n        /* \"#utility.yul\":10501:10578   */\n    tag_179:\n        /* \"#utility.yul\":10604:10671   */\n      tag_180\n        /* \"#utility.yul\":10664:10670   */\n      dup6\n        /* \"#utility.yul\":10657:10662   */\n      dup3\n        /* \"#utility.yul\":10604:10671   */\n      tag_68\n      jump\t// in\n    tag_180:\n        /* \"#utility.yul\":10598:10602   */\n      dup7\n        /* \"#utility.yul\":10591:10672   */\n      sstore\n        /* \"#utility.yul\":10460:10682   */\n      pop\n        /* \"#utility.yul\":9795:10682   */\n      jump(tag_177)\n        /* \"#utility.yul\":9825:10443   */\n    tag_178:\n        /* \"#utility.yul\":9877:9881   */\n      0x1f\n        /* \"#utility.yul\":9873:9882   */\n      not\n        /* \"#utility.yul\":9865:9871   */\n      dup5\n        /* \"#utility.yul\":9861:9883   */\n      and\n        /* \"#utility.yul\":9911:9948   */\n      tag_181\n        /* \"#utility.yul\":9943:9947   */\n      dup7\n        /* \"#utility.yul\":9911:9948   */\n      tag_53\n      jump\t// in\n    tag_181:\n        /* \"#utility.yul\":9970:9971   */\n      0x00\n        /* \"#utility.yul\":9984:10192   */\n    tag_182:\n        /* \"#utility.yul\":9998:10005   */\n      dup3\n        /* \"#utility.yul\":9995:9996   */\n      dup2\n        /* \"#utility.yul\":9992:10006   */\n      lt\n        /* \"#utility.yul\":9984:10192   */\n      iszero\n      tag_184\n      jumpi\n        /* \"#utility.yul\":10077:10086   */\n      dup5\n        /* \"#utility.yul\":10072:10075   */\n      dup10\n        /* \"#utility.yul\":10068:10087   */\n      add\n        /* \"#utility.yul\":10062:10088   */\n      mload\n        /* \"#utility.yul\":10054:10060   */\n      dup3\n        /* \"#utility.yul\":10047:10089   */\n      sstore\n        /* \"#utility.yul\":10128:10129   */\n      0x01\n        /* \"#utility.yul\":10120:10126   */\n      dup3\n        /* \"#utility.yul\":10116:10130   */\n      add\n        /* \"#utility.yul\":10106:10130   */\n      swap2\n      pop\n        /* \"#utility.yul\":10175:10177   */\n      0x20\n        /* \"#utility.yul\":10164:10173   */\n      dup6\n        /* \"#utility.yul\":10160:10178   */\n      add\n        /* \"#utility.yul\":10147:10178   */\n      swap5\n      pop\n        /* \"#utility.yul\":10021:10025   */\n      0x20\n        /* \"#utility.yul\":10018:10019   */\n      dup2\n        /* \"#utility.yul\":10014:10026   */\n      add\n        /* \"#utility.yul\":10009:10026   */\n      swap1\n      pop\n        /* \"#utility.yul\":9984:10192   */\n      jump(tag_182)\n    tag_184:\n        /* \"#utility.yul\":10220:10226   */\n      dup7\n        /* \"#utility.yul\":10211:10218   */\n      dup4\n        /* \"#utility.yul\":10208:10227   */\n      lt\n        /* \"#utility.yul\":10205:10384   */\n      iszero\n      tag_185\n      jumpi\n        /* \"#utility.yul\":10278:10287   */\n      dup5\n        /* \"#utility.yul\":10273:10276   */\n      dup10\n        /* \"#utility.yul\":10269:10288   */\n      add\n        /* \"#utility.yul\":10263:10289   */\n      mload\n        /* \"#utility.yul\":10321:10369   */\n      tag_186\n        /* \"#utility.yul\":10363:10367   */\n      0x1f\n        /* \"#utility.yul\":10355:10361   */\n      dup10\n        /* \"#utility.yul\":10351:10368   */\n      and\n        /* \"#utility.yul\":10340:10349   */\n      dup3\n        /* \"#utility.yul\":10321:10369   */\n      tag_67\n      jump\t// in\n    tag_186:\n        /* \"#utility.yul\":10313:10319   */\n      dup4\n        /* \"#utility.yul\":10306:10370   */\n      sstore\n        /* \"#utility.yul\":10228:10384   */\n      pop\n        /* \"#utility.yul\":10205:10384   */\n    tag_185:\n        /* \"#utility.yul\":10430:10431   */\n      0x01\n        /* \"#utility.yul\":10426:10427   */\n      0x02\n        /* \"#utility.yul\":10418:10424   */\n      dup9\n        /* \"#utility.yul\":10414:10428   */\n      mul\n        /* \"#utility.yul\":10410:10432   */\n      add\n        /* \"#utility.yul\":10404:10408   */\n      dup9\n        /* \"#utility.yul\":10397:10433   */\n      sstore\n        /* \"#utility.yul\":9832:10443   */\n      pop\n      pop\n      pop\n        /* \"#utility.yul\":9795:10682   */\n    tag_177:\n      pop\n        /* \"#utility.yul\":9385:10688   */\n      pop\n      pop\n      pop\n        /* \"#utility.yul\":9293:10688   */\n      pop\n      pop\n      jump\t// out\n\n    auxdata: 0xa2646970667358221220e0845f3a179aa5d1cfc09277f963e3594a1861fe8eab93ce8818bd88f9a6d63464736f6c634300081e0033\n}\n",
				"bytecode": {
					"linkReferences": {},
					"object": "60806040526040518060400160405280600881526020017f4a6f686e20446f650000000000000000000000000000000000000000000000008152506001908161004891906102d6565b50348015610054575f5ffd5b50335f5f6101000a81548173ffffffffffffffffffffffffffffffffffffffff021916908373ffffffffffffffffffffffffffffffffffffffff1602179055506103a5565b5f81519050919050565b7f4e487b71000000000000000000000000000000000000000000000000000000005f52604160045260245ffd5b7f4e487b71000000000000000000000000000000000000000000000000000000005f52602260045260245ffd5b5f600282049050600182168061011457607f821691505b602082108103610127576101266100d0565b5b50919050565b5f819050815f5260205f209050919050565b5f6020601f8301049050919050565b5f82821b905092915050565b5f600883026101897fffffffffffffffffffffffffffffffffffffffffffffffffffffffffffffffff8261014e565b610193868361014e565b95508019841693508086168417925050509392505050565b5f819050919050565b5f819050919050565b5f6101d76101d26101cd846101ab565b6101b4565b6101ab565b9050919050565b5f819050919050565b6101f0836101bd565b6102046101fc826101de565b84845461015a565b825550505050565b5f5f905090565b61021b61020c565b6102268184846101e7565b505050565b5b818110156102495761023e5f82610213565b60018101905061022c565b5050565b601f82111561028e5761025f8161012d565b6102688461013f565b81016020851015610277578190505b61028b6102838561013f565b83018261022b565b50505b505050565b5f82821c905092915050565b5f6102ae5f1984600802610293565b1980831691505092915050565b5f6102c6838361029f565b9150826002028217905092915050565b6102df82610099565b67ffffffffffffffff8111156102f8576102f76100a3565b5b61030282546100fd565b61030d82828561024d565b5f60209050601f83116001811461033e575f841561032c578287015190505b61033685826102bb565b86555061039d565b601f19841661034c8661012d565b5f5b828110156103735784890151825560018201915060208501945060208101905061034e565b86831015610390578489015161038c601f89168261029f565b8355505b6001600288020188555050505b505050505050565b6107cb806103b25f395ff3fe608060405234801561000f575f5ffd5b506004361061003f575f3560e01c806306fdde03146100435780638da5cb5b14610061578063e349cb121461007f575b5f5ffd5b61004b61009b565b604051610058919061025c565b60405180910390f35b610069610127565b60405161007691906102bb565b60405180910390f35b61009960048036038101906100949190610411565b61014b565b005b600180546100a890610485565b80601f01602080910402602001604051908101604052809291908181526020018280546100d490610485565b801561011f5780601f106100f65761010080835404028352916020019161011f565b820191905f5260205f20905b81548152906001019060200180831161010257829003601f168201915b505050505081565b5f5f9054906101000a900473ffffffffffffffffffffffffffffffffffffffff1681565b5f5f9054906101000a900473ffffffffffffffffffffffffffffffffffffffff1673ffffffffffffffffffffffffffffffffffffffff163373ffffffffffffffffffffffffffffffffffffffff16146101d9576040517f08c379a00000000000000000000000000000000000000000000000000000000081526004016101d0906104ff565b60405180910390fd5b80600190816101e891906106c6565b5050565b5f81519050919050565b5f82825260208201905092915050565b8281835e5f83830152505050565b5f601f19601f8301169050919050565b5f61022e826101ec565b61023881856101f6565b9350610248818560208601610206565b61025181610214565b840191505092915050565b5f6020820190508181035f8301526102748184610224565b905092915050565b5f73ffffffffffffffffffffffffffffffffffffffff82169050919050565b5f6102a58261027c565b9050919050565b6102b58161029b565b82525050565b5f6020820190506102ce5f8301846102ac565b92915050565b5f604051905090565b5f5ffd5b5f5ffd5b5f5ffd5b5f5ffd5b7f4e487b71000000000000000000000000000000000000000000000000000000005f52604160045260245ffd5b61032382610214565b810181811067ffffffffffffffff82111715610342576103416102ed565b5b80604052505050565b5f6103546102d4565b9050610360828261031a565b919050565b5f67ffffffffffffffff82111561037f5761037e6102ed565b5b61038882610214565b9050602081019050919050565b828183375f83830152505050565b5f6103b56103b084610365565b61034b565b9050828152602081018484840111156103d1576103d06102e9565b5b6103dc848285610395565b509392505050565b5f82601f8301126103f8576103f76102e5565b5b81356104088482602086016103a3565b91505092915050565b5f60208284031215610426576104256102dd565b5b5f82013567ffffffffffffffff811115610443576104426102e1565b5b61044f848285016103e4565b91505092915050565b7f4e487b71000000000000000000000000000000000000000000000000000000005f52602260045260245ffd5b5f600282049050600182168061049c57607f821691505b6020821081036104af576104ae610458565b5b50919050565b7f596f7520617265206e6f7420746865206f776e657221000000000000000000005f82015250565b5f6104e96016836101f6565b91506104f4826104b5565b602082019050919050565b5f6020820190508181035f830152610516816104dd565b9050919050565b5f819050815f5260205f209050919050565b5f6020601f8301049050919050565b5f82821b905092915050565b5f600883026105797fffffffffffffffffffffffffffffffffffffffffffffffffffffffffffffffff8261053e565b610583868361053e565b95508019841693508086168417925050509392505050565b5f819050919050565b5f819050919050565b5f6105c76105c26105bd8461059b565b6105a4565b61059b565b9050919050565b5f819050919050565b6105e0836105ad565b6105f46105ec826105ce565b84845461054a565b825550505050565b5f5f905090565b61060b6105fc565b6106168184846105d7565b505050565b5b818110156106395761062e5f82610603565b60018101905061061c565b5050565b601f82111561067e5761064f8161051d565b6106588461052f565b81016020851015610667578190505b61067b6106738561052f565b83018261061b565b50505b505050565b5f82821c905092915050565b5f61069e5f1984600802610683565b1980831691505092915050565b5f6106b6838361068f565b9150826002028217905092915050565b6106cf826101ec565b67ffffffffffffffff8111156106e8576106e76102ed565b5b6106f28254610485565b6106fd82828561063d565b5f60209050601f83116001811461072e575f841561071c578287015190505b61072685826106ab565b86555061078d565b601f19841661073c8661051d565b5f5b828110156107635784890151825560018201915060208501945060208101905061073e565b86831015610780578489015161077c601f89168261068f565b8355505b6001600288020188555050505b50505050505056fea2646970667358221220e0845f3a179aa5d1cfc09277f963e3594a1861fe8eab93ce8818bd88f9a6d63464736f6c634300081e0033",
					"opcodes": "PUSH1 0x80 PUSH1 0x40 MSTORE PUSH1 0x40 MLOAD DUP1 PUSH1 0x40 ADD PUSH1 0x40 MSTORE DUP1 PUSH1 0x8 DUP2 MSTORE PUSH1 0x20 ADD PUSH32 0x4A6F686E20446F65000000000000000000000000000000000000000000000000 DUP2 MSTORE POP PUSH1 0x1 SWAP1 DUP2 PUSH2 0x48 SWAP2 SWAP1 PUSH2 0x2D6 JUMP JUMPDEST POP CALLVALUE DUP1 ISZERO PUSH2 0x54 JUMPI PUSH0 PUSH0 REVERT JUMPDEST POP CALLER PUSH0 PUSH0 PUSH2 0x100 EXP DUP2 SLOAD DUP2 PUSH20 0xFFFFFFFFFFFFFFFFFFFFFFFFFFFFFFFFFFFFFFFF MUL NOT AND SWAP1 DUP4 PUSH20 0xFFFFFFFFFFFFFFFFFFFFFFFFFFFFFFFFFFFFFFFF AND MUL OR SWAP1 SSTORE POP PUSH2 0x3A5 JUMP JUMPDEST PUSH0 DUP2 MLOAD SWAP1 POP SWAP2 SWAP1 POP JUMP JUMPDEST PUSH32 0x4E487B7100000000000000000000000000000000000000000000000000000000 PUSH0 MSTORE PUSH1 0x41 PUSH1 0x4 MSTORE PUSH1 0x24 PUSH0 REVERT JUMPDEST PUSH32 0x4E487B7100000000000000000000000000000000000000000000000000000000 PUSH0 MSTORE PUSH1 0x22 PUSH1 0x4 MSTORE PUSH1 0x24 PUSH0 REVERT JUMPDEST PUSH0 PUSH1 0x2 DUP3 DIV SWAP1 POP PUSH1 0x1 DUP3 AND DUP1 PUSH2 0x114 JUMPI PUSH1 0x7F DUP3 AND SWAP2 POP JUMPDEST PUSH1 0x20 DUP3 LT DUP2 SUB PUSH2 0x127 JUMPI PUSH2 0x126 PUSH2 0xD0 JUMP JUMPDEST JUMPDEST POP SWAP2 SWAP1 POP JUMP JUMPDEST PUSH0 DUP2 SWAP1 POP DUP2 PUSH0 MSTORE PUSH1 0x20 PUSH0 KECCAK256 SWAP1 POP SWAP2 SWAP1 POP JUMP JUMPDEST PUSH0 PUSH1 0x20 PUSH1 0x1F DUP4 ADD DIV SWAP1 POP SWAP2 SWAP1 POP JUMP JUMPDEST PUSH0 DUP3 DUP3 SHL SWAP1 POP SWAP3 SWAP2 POP POP JUMP JUMPDEST PUSH0 PUSH1 0x8 DUP4 MUL PUSH2 0x189 PUSH32 0xFFFFFFFFFFFFFFFFFFFFFFFFFFFFFFFFFFFFFFFFFFFFFFFFFFFFFFFFFFFFFFFF DUP3 PUSH2 0x14E JUMP JUMPDEST PUSH2 0x193 DUP7 DUP4 PUSH2 0x14E JUMP JUMPDEST SWAP6 POP DUP1 NOT DUP5 AND SWAP4 POP DUP1 DUP7 AND DUP5 OR SWAP3 POP POP POP SWAP4 SWAP3 POP POP POP JUMP JUMPDEST PUSH0 DUP2 SWAP1 POP SWAP2 SWAP1 POP JUMP JUMPDEST PUSH0 DUP2 SWAP1 POP SWAP2 SWAP1 POP JUMP JUMPDEST PUSH0 PUSH2 0x1D7 PUSH2 0x1D2 PUSH2 0x1CD DUP5 PUSH2 0x1AB JUMP JUMPDEST PUSH2 0x1B4 JUMP JUMPDEST PUSH2 0x1AB JUMP JUMPDEST SWAP1 POP SWAP2 SWAP1 POP JUMP JUMPDEST PUSH0 DUP2 SWAP1 POP SWAP2 SWAP1 POP JUMP JUMPDEST PUSH2 0x1F0 DUP4 PUSH2 0x1BD JUMP JUMPDEST PUSH2 0x204 PUSH2 0x1FC DUP3 PUSH2 0x1DE JUMP JUMPDEST DUP5 DUP5 SLOAD PUSH2 0x15A JUMP JUMPDEST DUP3 SSTORE POP POP POP POP JUMP JUMPDEST PUSH0 PUSH0 SWAP1 POP SWAP1 JUMP JUMPDEST PUSH2 0x21B PUSH2 0x20C JUMP JUMPDEST PUSH2 0x226 DUP2 DUP5 DUP5 PUSH2 0x1E7 JUMP JUMPDEST POP POP POP JUMP JUMPDEST JUMPDEST DUP2 DUP2 LT ISZERO PUSH2 0x249 JUMPI PUSH2 0x23E PUSH0 DUP3 PUSH2 0x213 JUMP JUMPDEST PUSH1 0x1 DUP2 ADD SWAP1 POP PUSH2 0x22C JUMP JUMPDEST POP POP JUMP JUMPDEST PUSH1 0x1F DUP3 GT ISZERO PUSH2 0x28E JUMPI PUSH2 0x25F DUP2 PUSH2 0x12D JUMP JUMPDEST PUSH2 0x268 DUP5 PUSH2 0x13F JUMP JUMPDEST DUP2 ADD PUSH1 0x20 DUP6 LT ISZERO PUSH2 0x277 JUMPI DUP2 SWAP1 POP JUMPDEST PUSH2 0x28B PUSH2 0x283 DUP6 PUSH2 0x13F JUMP JUMPDEST DUP4 ADD DUP3 PUSH2 0x22B JUMP JUMPDEST POP POP JUMPDEST POP POP POP JUMP JUMPDEST PUSH0 DUP3 DUP3 SHR SWAP1 POP SWAP3 SWAP2 POP POP JUMP JUMPDEST PUSH0 PUSH2 0x2AE PUSH0 NOT DUP5 PUSH1 0x8 MUL PUSH2 0x293 JUMP JUMPDEST NOT DUP1 DUP4 AND SWAP2 POP POP SWAP3 SWAP2 POP POP JUMP JUMPDEST PUSH0 PUSH2 0x2C6 DUP4 DUP4 PUSH2 0x29F JUMP JUMPDEST SWAP2 POP DUP3 PUSH1 0x2 MUL DUP3 OR SWAP1 POP SWAP3 SWAP2 POP POP JUMP JUMPDEST PUSH2 0x2DF DUP3 PUSH2 0x99 JUMP JUMPDEST PUSH8 0xFFFFFFFFFFFFFFFF DUP2 GT ISZERO PUSH2 0x2F8 JUMPI PUSH2 0x2F7 PUSH2 0xA3 JUMP JUMPDEST JUMPDEST PUSH2 0x302 DUP3 SLOAD PUSH2 0xFD JUMP JUMPDEST PUSH2 0x30D DUP3 DUP3 DUP6 PUSH2 0x24D JUMP JUMPDEST PUSH0 PUSH1 0x20 SWAP1 POP PUSH1 0x1F DUP4 GT PUSH1 0x1 DUP2 EQ PUSH2 0x33E JUMPI PUSH0 DUP5 ISZERO PUSH2 0x32C JUMPI DUP3 DUP8 ADD MLOAD SWAP1 POP JUMPDEST PUSH2 0x336 DUP6 DUP3 PUSH2 0x2BB JUMP JUMPDEST DUP7 SSTORE POP PUSH2 0x39D JUMP JUMPDEST PUSH1 0x1F NOT DUP5 AND PUSH2 0x34C DUP7 PUSH2 0x12D JUMP JUMPDEST PUSH0 JUMPDEST DUP3 DUP2 LT ISZERO PUSH2 0x373 JUMPI DUP5 DUP10 ADD MLOAD DUP3 SSTORE PUSH1 0x1 DUP3 ADD SWAP2 POP PUSH1 0x20 DUP6 ADD SWAP5 POP PUSH1 0x20 DUP2 ADD SWAP1 POP PUSH2 0x34E JUMP JUMPDEST DUP7 DUP4 LT ISZERO PUSH2 0x390 JUMPI DUP5 DUP10 ADD MLOAD PUSH2 0x38C PUSH1 0x1F DUP10 AND DUP3 PUSH2 0x29F JUMP JUMPDEST DUP4 SSTORE POP JUMPDEST PUSH1 0x1 PUSH1 0x2 DUP9 MUL ADD DUP9 SSTORE POP POP POP JUMPDEST POP POP POP POP POP POP JUMP JUMPDEST PUSH2 0x7CB DUP1 PUSH2 0x3B2 PUSH0 CODECOPY PUSH0 RETURN INVALID PUSH1 0x80 PUSH1 0x40 MSTORE CALLVALUE DUP1 ISZERO PUSH2 0xF JUMPI PUSH0 PUSH0 REVERT JUMPDEST POP PUSH1 0x4 CALLDATASIZE LT PUSH2 0x3F JUMPI PUSH0 CALLDATALOAD PUSH1 0xE0 SHR DUP1 PUSH4 0x6FDDE03 EQ PUSH2 0x43 JUMPI DUP1 PUSH4 0x8DA5CB5B EQ PUSH2 0x61 JUMPI DUP1 PUSH4 0xE349CB12 EQ PUSH2 0x7F JUMPI JUMPDEST PUSH0 PUSH0 REVERT JUMPDEST PUSH2 0x4B PUSH2 0x9B JUMP JUMPDEST PUSH1 0x40 MLOAD PUSH2 0x58 SWAP2 SWAP1 PUSH2 0x25C JUMP JUMPDEST PUSH1 0x40 MLOAD DUP1 SWAP2 SUB SWAP1 RETURN JUMPDEST PUSH2 0x69 PUSH2 0x127 JUMP JUMPDEST PUSH1 0x40 MLOAD PUSH2 0x76 SWAP2 SWAP1 PUSH2 0x2BB JUMP JUMPDEST PUSH1 0x40 MLOAD DUP1 SWAP2 SUB SWAP1 RETURN JUMPDEST PUSH2 0x99 PUSH1 0x4 DUP1 CALLDATASIZE SUB DUP2 ADD SWAP1 PUSH2 0x94 SWAP2 SWAP1 PUSH2 0x411 JUMP JUMPDEST PUSH2 0x14B JUMP JUMPDEST STOP JUMPDEST PUSH1 0x1 DUP1 SLOAD PUSH2 0xA8 SWAP1 PUSH2 0x485 JUMP JUMPDEST DUP1 PUSH1 0x1F ADD PUSH1 0x20 DUP1 SWAP2 DIV MUL PUSH1 0x20 ADD PUSH1 0x40 MLOAD SWAP1 DUP2 ADD PUSH1 0x40 MSTORE DUP1 SWAP3 SWAP2 SWAP1 DUP2 DUP2 MSTORE PUSH1 0x20 ADD DUP3 DUP1 SLOAD PUSH2 0xD4 SWAP1 PUSH2 0x485 JUMP JUMPDEST DUP1 ISZERO PUSH2 0x11F JUMPI DUP1 PUSH1 0x1F LT PUSH2 0xF6 JUMPI PUSH2 0x100 DUP1 DUP4 SLOAD DIV MUL DUP4 MSTORE SWAP2 PUSH1 0x20 ADD SWAP2 PUSH2 0x11F JUMP JUMPDEST DUP3 ADD SWAP2 SWAP1 PUSH0 MSTORE PUSH1 0x20 PUSH0 KECCAK256 SWAP1 JUMPDEST DUP2 SLOAD DUP2 MSTORE SWAP1 PUSH1 0x1 ADD SWAP1 PUSH1 0x20 ADD DUP1 DUP4 GT PUSH2 0x102 JUMPI DUP3 SWAP1 SUB PUSH1 0x1F AND DUP3 ADD SWAP2 JUMPDEST POP POP POP POP POP DUP2 JUMP JUMPDEST PUSH0 PUSH0 SWAP1 SLOAD SWAP1 PUSH2 0x100 EXP SWAP1 DIV PUSH20 0xFFFFFFFFFFFFFFFFFFFFFFFFFFFFFFFFFFFFFFFF AND DUP2 JUMP JUMPDEST PUSH0 PUSH0 SWAP1 SLOAD SWAP1 PUSH2 0x100 EXP SWAP1 DIV PUSH20 0xFFFFFFFFFFFFFFFFFFFFFFFFFFFFFFFFFFFFFFFF AND PUSH20 0xFFFFFFFFFFFFFFFFFFFFFFFFFFFFFFFFFFFFFFFF AND CALLER PUSH20 0xFFFFFFFFFFFFFFFFFFFFFFFFFFFFFFFFFFFFFFFF AND EQ PUSH2 0x1D9 JUMPI PUSH1 0x40 MLOAD PUSH32 0x8C379A000000000000000000000000000000000000000000000000000000000 DUP2 MSTORE PUSH1 0x4 ADD PUSH2 0x1D0 SWAP1 PUSH2 0x4FF JUMP JUMPDEST PUSH1 0x40 MLOAD DUP1 SWAP2 SUB SWAP1 REVERT JUMPDEST DUP1 PUSH1 0x1 SWAP1 DUP2 PUSH2 0x1E8 SWAP2 SWAP1 PUSH2 0x6C6 JUMP JUMPDEST POP POP JUMP JUMPDEST PUSH0 DUP2 MLOAD SWAP1 POP SWAP2 SWAP1 POP JUMP JUMPDEST PUSH0 DUP3 DUP3 MSTORE PUSH1 0x20 DUP3 ADD SWAP1 POP SWAP3 SWAP2 POP POP JUMP JUMPDEST DUP3 DUP2 DUP4 MCOPY PUSH0 DUP4 DUP4 ADD MSTORE POP POP POP JUMP JUMPDEST PUSH0 PUSH1 0x1F NOT PUSH1 0x1F DUP4 ADD AND SWAP1 POP SWAP2 SWAP1 POP JUMP JUMPDEST PUSH0 PUSH2 0x22E DUP3 PUSH2 0x1EC JUMP JUMPDEST PUSH2 0x238 DUP2 DUP6 PUSH2 0x1F6 JUMP JUMPDEST SWAP4 POP PUSH2 0x248 DUP2 DUP6 PUSH1 0x20 DUP7 ADD PUSH2 0x206 JUMP JUMPDEST PUSH2 0x251 DUP2 PUSH2 0x214 JUMP JUMPDEST DUP5 ADD SWAP2 POP POP SWAP3 SWAP2 POP POP JUMP JUMPDEST PUSH0 PUSH1 0x20 DUP3 ADD SWAP1 POP DUP2 DUP2 SUB PUSH0 DUP4 ADD MSTORE PUSH2 0x274 DUP2 DUP5 PUSH2 0x224 JUMP JUMPDEST SWAP1 POP SWAP3 SWAP2 POP POP JUMP JUMPDEST PUSH0 PUSH20 0xFFFFFFFFFFFFFFFFFFFFFFFFFFFFFFFFFFFFFFFF DUP3 AND SWAP1 POP SWAP2 SWAP1 POP JUMP JUMPDEST PUSH0 PUSH2 0x2A5 DUP3 PUSH2 0x27C JUMP JUMPDEST SWAP1 POP SWAP2 SWAP1 POP JUMP JUMPDEST PUSH2 0x2B5 DUP2 PUSH2 0x29B JUMP JUMPDEST DUP3 MSTORE POP POP JUMP JUMPDEST PUSH0 PUSH1 0x20 DUP3 ADD SWAP1 POP PUSH2 0x2CE PUSH0 DUP4 ADD DUP5 PUSH2 0x2AC JUMP JUMPDEST SWAP3 SWAP2 POP POP JUMP JUMPDEST PUSH0 PUSH1 0x40 MLOAD SWAP1 POP SWAP1 JUMP JUMPDEST PUSH0 PUSH0 REVERT JUMPDEST PUSH0 PUSH0 REVERT JUMPDEST PUSH0 PUSH0 REVERT JUMPDEST PUSH0 PUSH0 REVERT JUMPDEST PUSH32 0x4E487B7100000000000000000000000000000000000000000000000000000000 PUSH0 MSTORE PUSH1 0x41 PUSH1 0x4 MSTORE PUSH1 0x24 PUSH0 REVERT JUMPDEST PUSH2 0x323 DUP3 PUSH2 0x214 JUMP JUMPDEST DUP2 ADD DUP2 DUP2 LT PUSH8 0xFFFFFFFFFFFFFFFF DUP3 GT OR ISZERO PUSH2 0x342 JUMPI PUSH2 0x341 PUSH2 0x2ED JUMP JUMPDEST JUMPDEST DUP1 PUSH1 0x40 MSTORE POP POP POP JUMP JUMPDEST PUSH0 PUSH2 0x354 PUSH2 0x2D4 JUMP JUMPDEST SWAP1 POP PUSH2 0x360 DUP3 DUP3 PUSH2 0x31A JUMP JUMPDEST SWAP2 SWAP1 POP JUMP JUMPDEST PUSH0 PUSH8 0xFFFFFFFFFFFFFFFF DUP3 GT ISZERO PUSH2 0x37F JUMPI PUSH2 0x37E PUSH2 0x2ED JUMP JUMPDEST JUMPDEST PUSH2 0x388 DUP3 PUSH2 0x214 JUMP JUMPDEST SWAP1 POP PUSH1 0x20 DUP2 ADD SWAP1 POP SWAP2 SWAP1 POP JUMP JUMPDEST DUP3 DUP2 DUP4 CALLDATACOPY PUSH0 DUP4 DUP4 ADD MSTORE POP POP POP JUMP JUMPDEST PUSH0 PUSH2 0x3B5 PUSH2 0x3B0 DUP5 PUSH2 0x365 JUMP JUMPDEST PUSH2 0x34B JUMP JUMPDEST SWAP1 POP DUP3 DUP2 MSTORE PUSH1 0x20 DUP2 ADD DUP5 DUP5 DUP5 ADD GT ISZERO PUSH2 0x3D1 JUMPI PUSH2 0x3D0 PUSH2 0x2E9 JUMP JUMPDEST JUMPDEST PUSH2 0x3DC DUP5 DUP3 DUP6 PUSH2 0x395 JUMP JUMPDEST POP SWAP4 SWAP3 POP POP POP JUMP JUMPDEST PUSH0 DUP3 PUSH1 0x1F DUP4 ADD SLT PUSH2 0x3F8 JUMPI PUSH2 0x3F7 PUSH2 0x2E5 JUMP JUMPDEST JUMPDEST DUP2 CALLDATALOAD PUSH2 0x408 DUP5 DUP3 PUSH1 0x20 DUP7 ADD PUSH2 0x3A3 JUMP JUMPDEST SWAP2 POP POP SWAP3 SWAP2 POP POP JUMP JUMPDEST PUSH0 PUSH1 0x20 DUP3 DUP5 SUB SLT ISZERO PUSH2 0x426 JUMPI PUSH2 0x425 PUSH2 0x2DD JUMP JUMPDEST JUMPDEST PUSH0 DUP3 ADD CALLDATALOAD PUSH8 0xFFFFFFFFFFFFFFFF DUP2 GT ISZERO PUSH2 0x443 JUMPI PUSH2 0x442 PUSH2 0x2E1 JUMP JUMPDEST JUMPDEST PUSH2 0x44F DUP5 DUP3 DUP6 ADD PUSH2 0x3E4 JUMP JUMPDEST SWAP2 POP POP SWAP3 SWAP2 POP POP JUMP JUMPDEST PUSH32 0x4E487B7100000000000000000000000000000000000000000000000000000000 PUSH0 MSTORE PUSH1 0x22 PUSH1 0x4 MSTORE PUSH1 0x24 PUSH0 REVERT JUMPDEST PUSH0 PUSH1 0x2 DUP3 DIV SWAP1 POP PUSH1 0x1 DUP3 AND DUP1 PUSH2 0x49C JUMPI PUSH1 0x7F DUP3 AND SWAP2 POP JUMPDEST PUSH1 0x20 DUP3 LT DUP2 SUB PUSH2 0x4AF JUMPI PUSH2 0x4AE PUSH2 0x458 JUMP JUMPDEST JUMPDEST POP SWAP2 SWAP1 POP JUMP JUMPDEST PUSH32 0x596F7520617265206E6F7420746865206F776E65722100000000000000000000 PUSH0 DUP3 ADD MSTORE POP JUMP JUMPDEST PUSH0 PUSH2 0x4E9 PUSH1 0x16 DUP4 PUSH2 0x1F6 JUMP JUMPDEST SWAP2 POP PUSH2 0x4F4 DUP3 PUSH2 0x4B5 JUMP JUMPDEST PUSH1 0x20 DUP3 ADD SWAP1 POP SWAP2 SWAP1 POP JUMP JUMPDEST PUSH0 PUSH1 0x20 DUP3 ADD SWAP1 POP DUP2 DUP2 SUB PUSH0 DUP4 ADD MSTORE PUSH2 0x516 DUP2 PUSH2 0x4DD JUMP JUMPDEST SWAP1 POP SWAP2 SWAP1 POP JUMP JUMPDEST PUSH0 DUP2 SWAP1 POP DUP2 PUSH0 MSTORE PUSH1 0x20 PUSH0 KECCAK256 SWAP1 POP SWAP2 SWAP1 POP JUMP JUMPDEST PUSH0 PUSH1 0x20 PUSH1 0x1F DUP4 ADD DIV SWAP1 POP SWAP2 SWAP1 POP JUMP JUMPDEST PUSH0 DUP3 DUP3 SHL SWAP1 POP SWAP3 SWAP2 POP POP JUMP JUMPDEST PUSH0 PUSH1 0x8 DUP4 MUL PUSH2 0x579 PUSH32 0xFFFFFFFFFFFFFFFFFFFFFFFFFFFFFFFFFFFFFFFFFFFFFFFFFFFFFFFFFFFFFFFF DUP3 PUSH2 0x53E JUMP JUMPDEST PUSH2 0x583 DUP7 DUP4 PUSH2 0x53E JUMP JUMPDEST SWAP6 POP DUP1 NOT DUP5 AND SWAP4 POP DUP1 DUP7 AND DUP5 OR SWAP3 POP POP POP SWAP4 SWAP3 POP POP POP JUMP JUMPDEST PUSH0 DUP2 SWAP1 POP SWAP2 SWAP1 POP JUMP JUMPDEST PUSH0 DUP2 SWAP1 POP SWAP2 SWAP1 POP JUMP JUMPDEST PUSH0 PUSH2 0x5C7 PUSH2 0x5C2 PUSH2 0x5BD DUP5 PUSH2 0x59B JUMP JUMPDEST PUSH2 0x5A4 JUMP JUMPDEST PUSH2 0x59B JUMP JUMPDEST SWAP1 POP SWAP2 SWAP1 POP JUMP JUMPDEST PUSH0 DUP2 SWAP1 POP SWAP2 SWAP1 POP JUMP JUMPDEST PUSH2 0x5E0 DUP4 PUSH2 0x5AD JUMP JUMPDEST PUSH2 0x5F4 PUSH2 0x5EC DUP3 PUSH2 0x5CE JUMP JUMPDEST DUP5 DUP5 SLOAD PUSH2 0x54A JUMP JUMPDEST DUP3 SSTORE POP POP POP POP JUMP JUMPDEST PUSH0 PUSH0 SWAP1 POP SWAP1 JUMP JUMPDEST PUSH2 0x60B PUSH2 0x5FC JUMP JUMPDEST PUSH2 0x616 DUP2 DUP5 DUP5 PUSH2 0x5D7 JUMP JUMPDEST POP POP POP JUMP JUMPDEST JUMPDEST DUP2 DUP2 LT ISZERO PUSH2 0x639 JUMPI PUSH2 0x62E PUSH0 DUP3 PUSH2 0x603 JUMP JUMPDEST PUSH1 0x1 DUP2 ADD SWAP1 POP PUSH2 0x61C JUMP JUMPDEST POP POP JUMP JUMPDEST PUSH1 0x1F DUP3 GT ISZERO PUSH2 0x67E JUMPI PUSH2 0x64F DUP2 PUSH2 0x51D JUMP JUMPDEST PUSH2 0x658 DUP5 PUSH2 0x52F JUMP JUMPDEST DUP2 ADD PUSH1 0x20 DUP6 LT ISZERO PUSH2 0x667 JUMPI DUP2 SWAP1 POP JUMPDEST PUSH2 0x67B PUSH2 0x673 DUP6 PUSH2 0x52F JUMP JUMPDEST DUP4 ADD DUP3 PUSH2 0x61B JUMP JUMPDEST POP POP JUMPDEST POP POP POP JUMP JUMPDEST PUSH0 DUP3 DUP3 SHR SWAP1 POP SWAP3 SWAP2 POP POP JUMP JUMPDEST PUSH0 PUSH2 0x69E PUSH0 NOT DUP5 PUSH1 0x8 MUL PUSH2 0x683 JUMP JUMPDEST NOT DUP1 DUP4 AND SWAP2 POP POP SWAP3 SWAP2 POP POP JUMP JUMPDEST PUSH0 PUSH2 0x6B6 DUP4 DUP4 PUSH2 0x68F JUMP JUMPDEST SWAP2 POP DUP3 PUSH1 0x2 MUL DUP3 OR SWAP1 POP SWAP3 SWAP2 POP POP JUMP JUMPDEST PUSH2 0x6CF DUP3 PUSH2 0x1EC JUMP JUMPDEST PUSH8 0xFFFFFFFFFFFFFFFF DUP2 GT ISZERO PUSH2 0x6E8 JUMPI PUSH2 0x6E7 PUSH2 0x2ED JUMP JUMPDEST JUMPDEST PUSH2 0x6F2 DUP3 SLOAD PUSH2 0x485 JUMP JUMPDEST PUSH2 0x6FD DUP3 DUP3 DUP6 PUSH2 0x63D JUMP JUMPDEST PUSH0 PUSH1 0x20 SWAP1 POP PUSH1 0x1F DUP4 GT PUSH1 0x1 DUP2 EQ PUSH2 0x72E JUMPI PUSH0 DUP5 ISZERO PUSH2 0x71C JUMPI DUP3 DUP8 ADD MLOAD SWAP1 POP JUMPDEST PUSH2 0x726 DUP6 DUP3 PUSH2 0x6AB JUMP JUMPDEST DUP7 SSTORE POP PUSH2 0x78D JUMP JUMPDEST PUSH1 0x1F NOT DUP5 AND PUSH2 0x73C DUP7 PUSH2 0x51D JUMP JUMPDEST PUSH0 JUMPDEST DUP3 DUP2 LT ISZERO PUSH2 0x763 JUMPI DUP5 DUP10 ADD MLOAD DUP3 SSTORE PUSH1 0x1 DUP3 ADD SWAP2 POP PUSH1 0x20 DUP6 ADD SWAP5 POP PUSH1 0x20 DUP2 ADD SWAP1 POP PUSH2 0x73E JUMP JUMPDEST DUP7 DUP4 LT ISZERO PUSH2 0x780 JUMPI DUP5 DUP10 ADD MLOAD PUSH2 0x77C PUSH1 0x1F DUP10 AND DUP3 PUSH2 0x68F JUMP JUMPDEST DUP4 SSTORE POP JUMPDEST PUSH1 0x1 PUSH1 0x2 DUP9 MUL ADD DUP9 SSTORE POP POP POP JUMPDEST POP POP POP POP POP POP JUMP INVALID LOG2 PUSH5 0x6970667358 0x22 SLT KECCAK256 RJUMP 0x845F GASPRICE OR SWAP11 0xA5 DATALOADN 0xCFC0 SWAP3 PUSH24 0xF963E3594A1861FE8EAB93CE8818BD88F9A6D63464736F6C PUSH4 0x4300081E STOP CALLER "
				},
				"gasEstimates": {
					"creation": {
						"codeDepositCost": "399000",
						"executionCost": "infinite",
						"totalCost": "infinite"
					},
					"external": {
						"change_name(string)": "infinite",
						"name()": "infinite",
						"owner()": "2507"
					}
				},
				"methodIdentifiers": {
					"change_name(string)": "e349cb12",
					"name()": "06fdde03",
					"owner()": "8da5cb5b"
				}
			},
			"storageLayout": {
				"storage": [
					{
						"astId": 3,
						"contract": "contracts/2_Storage.sol:Storage",
						"label": "owner",
						"offset": 0,
						"slot": "0",
						"type": "t_address"
					},
					{
						"astId": 6,
						"contract": "contracts/2_Storage.sol:Storage",
						"label": "name",
						"offset": 0,
						"slot": "1",
						"type": "t_string_storage"
					}
				],
				"types": {
					"t_address": {
						"encoding": "inplace",
						"label": "address",
						"numberOfBytes": "20"
					},
					"t_string_storage": {
						"encoding": "bytes",
						"label": "string",
						"numberOfBytes": "32"
					}
				}
			},
			"userdoc": {
				"kind": "user",
				"methods": {},
				"version": 1
			}
		}
	}
}